:100000000C945C000C9479000C9479000C947900A9
:100010000C9479000C9479000C9479000C9479007C
:100020000C9479000C9479000C9479000C9479006C
:100030000C9479000C9479000C9479000C9479005C
:100040000C941F010C9479000C9479000C947900A5
:100050000C9479000C9479000C9479000C9479003C
:100060000C9479000C947900000000080002010053
:100070000003040700000000000000000000000072
:10008000250028002B0000000000240027002A0083
:10009000040404040404040402020202020203032E
:1000A0000303030301020408102040800102040836
:1000B000102001020408102011241FBECFEFD8E049
:1000C000DEBFCDBF11E0A0E0B1E0E6E2F5E002C0A6
:1000D00005900D92A634B107D9F721E0A6E4B1E06E
:1000E00001C01D92AF34B207E1F70E9469010C9480
:1000F00091020C94000090E0FC01E859FF4F24911C
:10010000FC01EC55FF4F3491FC01E057FF4FE491A7
:10011000EE23C9F0222339F0233001F1A8F4213075
:1001200019F1223029F1F0E0EE0FFF1FE458FF4FE4
:10013000A591B4918FB7F894EC91611126C03095D8
:100140003E233C938FBF08952730A9F02830C9F093
:10015000243049F7809180008F7D03C0809180001A
:100160008F7780938000DFCF84B58F7784BDDBCF1E
:1001700084B58F7DFBCF8091B0008F778093B000E6
:10018000D2CF8091B0008F7DF9CF3E2BDACF3FB731
:10019000F89480914B0190914C01A0914D01B09148
:1001A0004E0126B5A89B05C02F3F19F00196A11D51
:1001B000B11D3FBFBA2FA92F982F8827BC01CD01B1
:1001C000620F711D811D911D42E0660F771F881F10
:1001D000991F4A95D1F708958F929F92AF92BF923F
:1001E000CF92DF92EF92FF926B017C010E94C700D9
:1001F0004B015C01C114D104E104F104B9F00E9487
:10020000C700681979098A099B09683E734081050E
:10021000910580F321E0C21AD108E108F10888EEC7
:10022000880E83E0981EA11CB11CE4CFFF90EF90D4
:10023000DF90CF90BF90AF909F908F9008951F92C6
:100240000F920FB60F9211242F933F938F939F938A
:10025000AF93BF938091470190914801A0914901CC
:10026000B0914A013091460123E0230F2D3758F514
:100270000196A11DB11D20934601809347019093E3
:100280004801A0934901B0934A0180914B0190919C
:100290004C01A0914D01B0914E010196A11DB11DDF
:1002A00080934B0190934C01A0934D01B0934E016C
:1002B000BF91AF919F918F913F912F910F900FBE62
:1002C0000F901F90189526E8230F0296A11DB11DCF
:1002D000D2CFCF93DF93CDB7DEB7A1970FB6F89407
:1002E000DEBF0FBECDBF789484B5826084BD84B577
:1002F000816084BD85B5826085BD85B5816085BD21
:1003000080916E00816080936E00109281008091D8
:100310008100826080938100809181008160809360
:100320008100809180008160809380008091B10085
:1003300084608093B1008091B00081608093B000B0
:1003400080917A00846080937A0080917A00826044
:1003500080937A0080917A00816080937A00809106
:100360007A00806880937A001092C100ECEAF0E095
:100370002491E8E9F0E08491882399F090E0880FD7
:10038000991FFC01EA57FF4FA591B491FC01E45875
:10039000FF4F859194918FB7F894EC91E22BEC93F9
:1003A0008FBF36E3232E31E0332E28E131E03A8F40
:1003B000298FD101ED911D01EB8FA98DBA8D8D9102
:1003C0009D91BA8FA98FECE2F1E08E9FB0018F9FD3
:1003D000700D9E9F700D1124FB8DF032C1F4072E1D
:1003E000000C880B990B0E94EC0066E970E080E03D
:1003F00090E00E94EC00A5E4B1E0A215B305C9F6B7
:10040000E0E0F0E0EF2B69F20E940000CACF88E044
:10041000E0E0F1E0DE01519601900D928A95E1F75E
:1004200080E1E8E0F1E0DE01119601900D928A95FD
:10043000E1F728EE33E0DB010E947B022B013C0157
:100440009E012F5E3F4F3D8F2C8F10E000E0AC8D62
:10045000BD8D8D91BD8FAC8FBB8DB81345C0F8019C
:10046000EE0FFF1F21E030E02C0F3D1FE20FF31FC6
:10047000E080F1806701CC0CDD1CCC0CDD1C35E08C
:10048000C31AD108C701880F991F9C01990F440B0B
:10049000550B2E8F3F8F48A359A3812C912C5401CB
:1004A00084149504A604B704FCF461E088E00E947B
:1004B0007B0032E0E316F10418F0C6010197F1F772
:1004C00060E088E00E947B0042E0E416F10418F04E
:1004D000C6010197F1F78E8D9F8DA8A1B9A1880E55
:1004E000991EAA1EBB1EDCCF0F5F1F4F08301105DF
:1004F00009F0ADCF7ACF0E948202B7FF0895821B28
:10050000930B0895A29FB001B39FC001A39F700DEC
:10051000811D1124911DB29F700D811D1124911D0B
:060520000895F894FFCFDE
:1005260063646566676162437B07A406EF05980509
:10053600FB047004F603BC03010001000100010086
:10054600010001000200010001000100010001009C
:1005560001000200040063636767616167666665A0
:06056600656464632000DF
:107E0000112484B714BE81FFF0D085E080938100F7
:107E100082E08093C00088E18093C10086E0809377
:107E2000C20080E18093C4008EE0C9D0259A86E02C
:107E300020E33CEF91E0309385002093840096BBD3
:107E4000B09BFECF1D9AA8958150A9F7CC24DD24C4
:107E500088248394B5E0AB2EA1E19A2EF3E0BF2EE7
:107E6000A2D0813461F49FD0082FAFD0023811F036
:107E7000013811F484E001C083E08DD089C08234E0
:107E800011F484E103C0853419F485E0A6D080C0E4
:107E9000853579F488D0E82EFF2485D0082F10E0AE
:107EA000102F00270E291F29000F111F8ED06801E7
:107EB0006FC0863521F484E090D080E0DECF843638
:107EC00009F040C070D06FD0082F6DD080E0C81688
:107ED00080E7D80618F4F601B7BEE895C0E0D1E017
:107EE00062D089930C17E1F7F0E0CF16F0E7DF06D8
:107EF00018F0F601B7BEE89568D007B600FCFDCFD4
:107F0000A601A0E0B1E02C9130E011968C91119780
:107F100090E0982F8827822B932B1296FA010C0160
:107F200087BEE89511244E5F5F4FF1E0A038BF0790
:107F300051F7F601A7BEE89507B600FCFDCF97BE46
:107F4000E89526C08437B1F42ED02DD0F82E2BD052
:107F50003CD0F601EF2C8F010F5F1F4F84911BD097
:107F6000EA94F801C1F70894C11CD11CFA94CF0C13
:107F7000D11C0EC0853739F428D08EE10CD085E9AC
:107F80000AD08FE07ACF813511F488E018D01DD067
:107F900080E101D065CF982F8091C00085FFFCCF94
:107FA0009093C60008958091C00087FFFCCF809118
:107FB000C00084FD01C0A8958091C6000895E0E648
:107FC000F0E098E1908380830895EDDF803219F02E
:107FD00088E0F5DFFFCF84E1DECF1F93182FE3DFCA
:107FE0001150E9F7F2DF1F91089580E0E8DFEE27F6
:047FF000FF270994CA
:027FFE00040479
:0400000300007E007B
:00000001FF
