:100000000C9447090C946F090C946F090C946F09B8
:100010000C946F090C946F090C946F090C941A19C5
:100020000C946F090C946F090C946F090C946F0970
:100030000C946F090C946F090C946F090C946F0960
:100040000C9476190C946F090C946F090C946F0939
:100050000C946F090C946F090C946F090C946F0940
:100060000C94C0190C946F0900000000003E5B4F17
:100070005B3E3E6B4F6B3E1C3E7C3E1C183C7E3C08
:10008000181C577D571C1C5E7F5E1C00183C180016
:10009000FFE7C3E7FF0018241800FFE7DBE7FF30A6
:1000A000483A060E2629792926407F050507407F14
:1000B00005253F5A3CE73C5A7F3E1C1C08081C1C87
:1000C0003E7F14227F22145F5F005F5F06097F017D
:1000D0007F006689956A606060606094A2FFA29468
:1000E00008047E040810207E201008082A1C080836
:1000F0001C2A08081E101010100C1E0C1E0C303884
:100100003E3830060E3E0E06000000000000005F84
:1001100000000007000700147F147F14242A7F2AA0
:100120001223130864623649562050000807030062
:10013000001C2241000041221C002A1C7F1C2A08AE
:10014000083E080800807030000808080808000011
:1001500060600020100804023E5149453E00427F85
:10016000400072494949462141494D331814127FD4
:100170001027454545393C4A494931412111090774
:100180003649494936464949291E000014000000F5
:1001900040340000000814224114141414140041C7
:1001A00022140802015909063E415D594E7C121184
:1001B000127C7F494949363E414141227F414141BC
:1001C0003E7F494949417F090909013E4141517337
:1001D0007F0808087F00417F41002040413F017FA8
:1001E000081422417F404040407F021C027F7F0470
:1001F00008107F3E4141413E7F090909063E4151B9
:10020000215E7F09192946264949493203017F01A8
:10021000033F4040403F1F2040201F3F4038403FA9
:10022000631408146303047804036159494D4300BF
:100230007F4141410204081020004141417F0402F6
:10024000010204404040404000030708002054548D
:1002500078407F284444383844444428384444286B
:100260007F385454541800087E090218A4A49C78BE
:100270007F0804047800447D40002040403D007F1A
:100280001028440000417F40007C047804787C08FA
:100290000404783844444438FC18242418182424CE
:1002A00018FC7C08040408485454542404043F44B3
:1002B000243C4040207C1C2040201C3C4030403CE2
:1002C00044281028444C9090907C4464544C440042
:1002D00008364100000077000000413608000201A6
:1002E0000204023C2623263C1EA1A161123A404092
:1002F000207A38545455592155557941225454780F
:1003000042215554784020545579400C1E527212A7
:100310003955555559395454545939555454580030
:1003200000457C410002457D420001457C407D1234
:1003300011127DF0282528F07C5455450020545496
:100340007C547C0A097F4932494949323A44444441
:100350003A324A4848303A4141217A3A424020787C
:10036000009DA0A07D3D4242423D3D4040403D3C7D
:1003700024FF2424487E4943662B2FFC2F2BFF09A2
:1003800029F620C0887E0903205454794100004496
:100390007D413048484A32384040227A007A0A0A81
:1003A000727D0D19317D2629292F282629292926F4
:1003B00030484D4020380808080808080808382F39
:1003C00010C8ACBA2F102834FA00007B00000814C3
:1003D0002A142222142A14085500550055AA55AA99
:1003E00055AAFF55FF55FF000000FF00101010FF39
:1003F00000141414FF001010FF00FF1010F010F094
:10040000141414FC001414F700FF0000FF00FF1484
:1004100014F404FC141417101F10101F101F1414D0
:10042000141F00101010F0000000001F101010101A
:100430001F10101010F010000000FF10101010100E
:1004400010101010FF10000000FF140000FF00FF4C
:1004500000001F10170000FC04F4141417101714E8
:1004600014F404F40000FF00F7141414141414140A
:10047000F700F7141414171410101F101F1414147D
:10048000F4141010F010F000001F101F0000001FE7
:1004900014000000FC140000F010F01010FF10FF1A
:1004A000141414FF141010101F00000000F010FFAF
:1004B000FFFFFFFFF0F0F0F0F0FFFFFF0000000093
:1004C00000FFFF0F0F0F0F0F3844443844FC4A4A17
:1004D0004A347E02020606027E027E0263554941CC
:1004E000633844443C04407E201E2006027E020203
:1004F00099A5E7A5991C2A492A1C4C7201724C3017
:100500004A4D4D303048784830BC625A463D3E49ED
:100510004949007E0101017E2A2A2A2A2A44445F91
:10052000444440514A444040444A51400000FF0185
:1005300003E080FF000008086B6B08361236243693
:10054000060F090F060000181800000010100030F8
:1005500040FF0101001F01011E00191D1712003C80
:100560003C3C3C0000000000000103070F1F3F7FE0
:100570000080C0E0F0F8FCFE00000000240027002E
:100580002A00DB40A4A62EAF2000A1C8D300408DD6
:10059000AED580A800006000000000000000000050
:1005A0000000000000E0000000000000000000006B
:1005B00000000001E000000000000000000000005A
:1005C000000001F00000000000000000000000003A
:1005D0000003F00000000000000000000000000028
:1005E00007F000000000000000000000000000070D
:1005F000F8000000000000000000000000000FF8FC
:1006000000000003C0007E000001E0007F0FF80042
:10061000000003C000FE000001E000FFEFF8000052
:100620000003C000FE000001E000FFFFF800000032
:1006300003C000F00000000F007FFE7FC000000339
:10064000C000F00000000F003FFE7FF83FF1FBCF3D
:10065000FCFEF3BC3DEFE01FFE7FFF7FFBFFDFFEF4
:10066000FEFFBC3DEFE01FC6FFFF7FFBFFDFFEFE8E
:10067000FFBC3DEFE00FE3C7FE787BC3DE1EF0FF5B
:10068000BC3DEF0007FF87FC787BC3DE1EF0F83C23
:100690003DEF0001FFFFF0007BC3C01EF0F03C3DCA
:1006A000EF0001F37FE03FFBC3CFFEF0F03C3DEFF6
:1006B0000003E33F807FFBC3DFFEF0F03C3DEF0033
:1006C00007E73C00787BC3DE1EF0F03C3DEF0007FF
:1006D000FFBE00787BC3DE1EF0F03C3DEF0007FF5D
:1006E000FE00787BC3DE1EF0F03C3DEF000FFFFE06
:1006F000007FFBFFDFFEF0F03FFDEFE00FFFFF00AC
:100700007FFBFFDFFEF0F03FFDEFE00FF9FF003E63
:1007100079F9CF9EF0F01F3DE7E01FF1FF000000E8
:100720000000000000000000001F80FF007FFFFFAE
:10073000FFFFFFFFFFFFFFE01C007F007FFFFFFFC9
:10074000FEB46D888D18E000001F007FFFFFFFFEE4
:1007500095AD7DB577E000000F007FFFFFFFFEA5A0
:10076000AD9D8D19E0000006007FFFFFFFFEB5ADD7
:10077000EDB57EE0000000000001800000000000F8
:1007800000000000038000000000000000000007DF
:10079000C000000000000000000007C000000000D2
:1007A00000000000000FC00000000000000000007A
:1007B0001FE00000000000000000001FE00000003B
:1007C0000000000000003FE000000000000000000A
:1007D000003FF00000000000000000007FF000007B
:1007E00000000000001FF87FF00000000000000083
:1007F0003FFE7FF0000000000000003FFF7FF000A0
:100800000000000000001FFFFBE0000000000000EF
:10081000000FFFF9FFC00000000000000FFFF9FF0C
:10082000F800000000000007FFF1FFFF00000000DB
:10083000000003FC73FFFF80000000000001FE3F8A
:10084000FFFF80000000000000FF1E0FFF000000FF
:10085000000000007FFE1FFC000000000000003FC1
:10086000FFFFF8000000000000000FDFFFE00000C5
:1008700000000000001F19FFC00000000000000081
:100880003F3CFF00000000000000007E7CF80000FC
:100890000000000000007FFE7C000000000000005F
:1008A00000FFFFFC0000000000000000FFFFFE0052
:1008B00000000000000000FFFFFE0000000000003C
:1008C0000001FFEFFE0000000000000001FFCFFE6E
:1008D0000000000000000003FF07FE000000000011
:1008E000000003FC07FE0000000000000003F0030E
:1008F000FE00000000000000018000FE000000007B
:100900000000000000007E00000000000000000069
:10091000003E000000000000000000000C0000008D
:10092000000000078000FC000003C00000000780FA
:1009300001FC000003C0000000078001FC00000370
:10094000C0000000078001E00000001E000000075A
:100950008001E00000001E007FE3F79FF9FDE778CB
:100960007BDFC0FFF7FFBFFDFDFF787BDFC0FFF738
:10097000FFBFFDFDFF787BDFC0F0F787BC3DE1FFE7
:10098000787BDE00F0F787BC3DE1F0787BDE00008D
:10099000F787803DE1E0787BDE007FF7879FFDE110
:1009A000E0787BDE00FFF787BFFDE1E0787BDE00CB
:1009B000F0F787BC3DE1E0787BDE00F0F787BC3DD7
:1009C000E1E0787BDE00F0F787BC3DE1E0787BDE9C
:1009D00000FFF7FFBFFDE1E07FFBDFC0FFF7FFBFD8
:1009E000FDE1E07FFBDFC07CF3F39F3DE1E03E7B78
:1009F000CFC00000000000000000000000FFFFFF6B
:100A0000FFFFFFFFFFFFFFC0FFFFFFFFFD68DB11E0
:100A10001A31C0FFFFFFFFFD2B5AFB6AEFC0FFFF3B
:100A2000FFFFFD4B5B3B1A33C0FFFFFFFFFD6B5B1E
:100A3000DB6AFDC00000000800020100000304079B
:100A4000000000000000000000000000230026005D
:100A5000290000000000000000000000000000006D
:100A60000000000000000000000000000000000086
:100A70000000000000000000000000000000000076
:100A80000000000000000000000000000000000066
:100A90000000000000000000000000000000000056
:100AA0000000000000000000000000000000000046
:100AB0000000000000000000000000000000000036
:100AC0000000000000000000000000000000000026
:100AD0000000000000000000000000000000000016
:100AE0000000000000000000000000000000000006
:100AF00000000000000000000000000000000000F6
:100B000000000000000000000000000000000000E5
:100B100000000000000000000000000000000000D5
:100B200000000000000000000000000000000000C5
:100B300000000007FFFFFE0000000000007FFFFF35
:100B4000E000001FFFFFFF800000000001FFFFFF2B
:100B5000F800003FFFFFFFC00000000003FFFFFFA1
:100B6000FC00007FFFFFFFE00000000007FFFFFF29
:100B7000FE00007FFFFFFFE00000000007FFFFFF17
:100B8000FE00003FFFFFFFC00000000003FFFFFF6B
:100B9000FC00003FFFFFFFC00000000003FFFFFF5D
:100BA000FC00001FFFFFFF800000000001FFFFFFAF
:100BB000F8000007FFFFFE0000000000007FFFFFBD
:100BC000E000000000000000000000000000000045
:100BD0000000000000000000000000000000000015
:100BE0000000000000000000000000000000000005
:100BF00000000000000000000000000000000000F5
:100C000000000000000000000000000000000000E4
:100C100000000000000000000000000000000000D4
:100C200000000000000000000000000000000000C4
:100C300000000000000000000000000000000000B4
:100C400000000000000000000000000000000000A4
:100C50000000000000000000000000000000000094
:100C60000000000000000000000000000000000084
:100C70000000000000000000000000000000000074
:100C80000000000000000000000000000000000064
:100C90000000000000000000000000000000000054
:100CA000000000007FF800000000000000003FFE90
:100CB00000000003FFFF0000000000000001FFFF34
:100CC00080000003FFFF0000000000000001FFFFA4
:100CD0008000001FFFFFF00000000000000FFFFF7A
:100CE000F000003FFFFFF80000000000003FFFFFA2
:100CF000F800003FFFFFFC0000000000003FFFFF86
:100D0000FC00007FFFFFFE000000000000FFFFFF6F
:100D1000FE0000FFFFFFFF000000000001FFFFFFDB
:100D2000FF0001FFFFFFFF800000000001FFFFFF49
:100D3000FF0001FFFFFFFF800000000003FFFFFF37
:100D4000FF8003FFFFFFFFE00000000007FFFFFF41
:100D5000FFC003FFFFFFFFE00000000007FFFFFFF1
:100D6000FFC007FFFFFFFFE0000000000FFFFFFFD5
:100D7000FFC007FFFFFFFFF0000000000FFFFFFFB5
:100D8000FFE007FFFFFFFFF0000000001FFFFFFF75
:100D9000FFE00FFF8001FFF0000000001FFF800355
:100DA000FFE007FE00003FF0000000000FFC000025
:100DB0007FE00FF800001FF0000000001FF80000A7
:100DC0001FE00FE0000003F0000000001FC0000063
:100DD00007E00780000001F0000000000F000000A5
:100DE00003E0000000000000000000000000000020
:100DF00000000000000000000000000000000000F3
:100E000000000000000000000000000000000000E2
:100E100000000000000000000000000000000000D2
:100E200000000000000000000000000000000000C2
:100E300000000000000000000000000000000000B2
:100E400000000000000000000000000000000000A2
:100E50000000000000000000000000000000000092
:100E60000000000000000000000000000000000082
:100E70000000000000000000000000000000000072
:100E80000000000000000000000000000000000062
:100E90000000000000000000000000000000000052
:100EA0000000000000000000000000000000000042
:100EB0000000000000000000000000000000000032
:100EC0000000000000000000000000000000000022
:100ED0000000000000000000000000000000000012
:100EE0000000000000000000000000000000000002
:100EF00000000000000000000000000000000000F2
:100F000000000000000000000000000000000000E1
:100F100000000000000000000000000000000000D1
:100F200000000000000000000000000000000000C1
:100F300000000007FFFFFE0000000000007FFFFF31
:100F4000E000001FFFFFFF800000000001FFFFFF27
:100F5000F800003FFFFFFFC00000000003FFFFFF9D
:100F6000FC00007FFFFFFFE00000000007FFFFFF25
:100F7000FE00007FFFFFFFE00000000007FFFFFF13
:100F8000FE00003FFFFFFFC00000000003FFFFFF67
:100F9000FC00003FFFFFFFC00000000003FFFFFF59
:100FA000FC00001FFFFFFF800000000001FFFFFFAB
:100FB000F8000007FFFFFE0000000000007FFFFFB9
:100FC000E000000000000000000000000000000041
:100FD0000000000000000000000000000000000011
:100FE0000000000000000000000000000000000001
:100FF00000000000000000000000000000000000F1
:1010000000000000000000000000000000000000E0
:1010100000000000000000000000000000000000D0
:1010200000000000000000000000000000000000C0
:1010300000000000000000000000000000000000B0
:1010400000000000000000000000000000000000A0
:101050000000000000000000000000000000000090
:101060000000000000000000000000000000000080
:101070000000000000000000000000000000000070
:10108000000007E000000000000000000000000079
:1010900007E007F000000000000000000000000072
:1010A0000FE00FFC00000000000000000000000046
:1010B0003FF00FFF000000000000000000000000F3
:1010C000FFF00FFFE000000000000000000000073C
:1010D000FFF00FFFFC000000000000000000003FD8
:1010E000FFF00FFFFE000000000000000000007F86
:1010F000FFF00FFFFF80000000000000000001FF74
:10110000FFF00FFFFFFF0000000000000000FFFFE6
:10111000FFF00FFFFFFFC000000000000003FFFF13
:10112000FFF007FFFFFFFFFC000000003FFFFFFF95
:10113000FFE007FFFFFFFFFC000000003FFFFFFF95
:10114000FFE007FFFFFFFFFC000000003FFFFFFF85
:10115000FFE003FFFFFFFFFC000000003FFFFFFF79
:10116000FFC001FFFFFFFFFC000000003FFFFFFF8B
:10117000FF8001FFFFFFFFFC000000003FFFFFFFBB
:10118000FF8001FFFFFFFFFC000000003FFFFFFFAB
:10119000FF8000FFFFFFFFF8000000001FFFFFFFC0
:1011A000FF00007FFFFFFFF8000000001FFFFFFFB0
:1011B000FE00003FFFFFFFF0000000000FFFFFFFF9
:1011C000FC00001FFFFFFFE00000000007FFFFFF23
:1011D000F800000FFFFFFFC00000000003FFFFFF4B
:1011E000F000000FFFFFFFC00000000003FFFFFF43
:1011F000F0000003FFFFFF800000000001FFFFFF81
:10120000C0000000FFFFFC0000000000003FFFFFE7
:10121000000000003FFFE000000000000007FFFCAE
:1012200000000000000000000000000000000000BE
:1012300000000000000000000000000000000000AE
:10124000000000000000000000000000000000009E
:1012500000002200FF21000102040810204080014C
:1012600002040810200102040810200000000025DC
:101270000028002B000404040404040404020202F5
:1012800002020203030303030302241B671F11244A
:101290001FBECFEFD8E0DEBFCDBF11E0A0E0B1E0D0
:1012A000E8E5F4E402C005900D92A634B107D9F741
:1012B00022E0A6E4B1E001C01D92AD36B207E1F72D
:1012C00019E0C6E4D9E004C02197FE010E94E8209D
:1012D000C534D107C9F70E947F1B0C941F220C94C0
:1012E0000000089508950895AF92BF92CF92DF92C3
:1012F000EF92FF920F931F93CF93DF936C017B01CB
:101300008B01040F151FEB015E01AE18BF08C0175B
:10131000D10759F06991D601ED91FC910190F081CE
:10132000E02DC6010995892B79F7C501DF91CF9191
:101330001F910F91FF90EF90DF90CF90BF90AF90F3
:101340000895833081F028F4813099F08230A9F03B
:1013500008958730A9F08830C9F08430B1F48091C5
:1013600080008F7D03C0809180008F778093800004
:10137000089584B58F7784BD089584B58F7DFBCFA4
:101380008091B0008F778093B00008958091B00075
:101390008F7DF9CF1F93CF93DF93282F30E0F90192
:1013A000EC5CF54F8491F901E95AFD4ED491F901B5
:1013B000EB58FD4EC491CC23A9F0162F81110E9449
:1013C000A109EC2FF0E0EE0FFF1FE559FD4EA591AE
:1013D000B4918FB7F894EC91111108C0D095DE2329
:1013E000DC938FBFDF91CF911F910895DE2BF8CF53
:1013F0009091000189130BC0E9E8F2E1E4919FEFBD
:1014000090930001E13049F028F0E23061F060E0B3
:101410000C94CA0910926E00FACF90916F009D7FD4
:1014200090936F00F4CF909170009D7F9093700027
:1014300091E09093B0009091B100987F9460909368
:10144000B1001092B300E3CFCF93DF9390E0FC01A3
:10145000E95AFD4E24918B589D4EFC0184918823BE
:10146000D1F090E0880F991FFC01E858FA4FA59140
:10147000B491FC01E559FD4EC591D49161110EC0A6
:101480009FB7F8948C91E22FE0958E238C9328815E
:10149000E223E8839FBFDF91CF9108958FB7F8943F
:1014A000EC91E22BEC938FBFF6CFCF92DF92EF92CD
:1014B000FF92CF936C0180910001883049F08F3FFB
:1014C00009F44FC0CF91FF90EF90DF90CF90089537
:1014D000E9E8F2E1C491C7FDF5CF61E088E00E9440
:1014E000240ACC2319F0C23009F0D9C0F12CE12C28
:1014F00068E478EE81E090E0A70196010E94C9209F
:10150000BA01A9014150510961097109CC2309F4BB
:1015100006C1C23009F094C04F3F51056105710505
:1015200009F00CF4BAC064E274EF80E090E0A70127
:1015300096010E94C920BA01A901415051096109CF
:10154000710995E08091B100887F892B8093B1006B
:10155000C13009F4BCC0C23009F4CEC0C111B2CF51
:101560008AC088E080930001E9E8F2E1C491CF3FAE
:1015700009F4A8CFC13021F150F0C23009F43EC0C7
:10158000C7FDA0CF61E088E00E94240AACCF14BC64
:1015900015BC84B5826084BD85B5816085BDEDE7ED
:1015A000F2E1E491F0E0EE0FFF1FE559FD4E859169
:1015B0009491EFE5F2E1E491E0931002C0E08DCF69
:1015C0001092800010928100809181008860809349
:1015D000810080918100816080938100EDE7F2E1DC
:1015E000E491F0E0EE0FFF1FE559FD4E85919491D7
:1015F000EFE5F2E1E491E0930F026FCF1092B000BB
:101600001092B1008091B00082608093B000809110
:10161000B10081608093B100EDE7F2E1E491F0E088
:10162000EE0FFF1FE559FD4E8591949190930E02A8
:1016300080930D02EFE5F2E1E491E0930C024DCFCF
:101640004F3F51056105710541F13CF162E17AE7D7
:1016500080E090E0A70196010E94C920BA01A9018B
:101660004150510961097109C11162C094E085B509
:10167000887F892B85BD47BD8FEF9FEFDC0180936D
:10168000190290931A02A0931B02B0931C0280913E
:101690006E00826080936E0015CF94E053CF960168
:1016A00050E040E060E072E18AE790E00E94C920EB
:1016B000BA01A9014150510961097109C13009F00C
:1016C00047CF80918100887F816080938100509313
:1016D0008900409388008FEF9FEFDC018093150213
:1016E00090931602A0931702B093180280916F0096
:1016F000826080936F00E6CE4093B3008FEF9FEF40
:10170000DC018093110290931202A0931302B09314
:10171000140280917000826080937000D3CE93E0B9
:101720004F3F51056105710511F00CF08FCF9FCF30
:1017300096E008CF3FB7F8948091FB019091FC01AF
:10174000A091FD01B091FE0126B5A89B05C02F3FD9
:1017500019F00196A11DB11D3FBFBA2FA92F982FD7
:101760008827BC01CD01620F711D811D911D42E0D2
:10177000660F771F881F991F4A95D1F708958F929A
:101780009F92AF92BF92CF92DF92EF92FF926B0146
:101790007C010E949A0B4B015C01C114D104E1044D
:1017A000F104B9F00E949A0B681979098A099B091A
:1017B000683E73408105910580F321E0C21AD1088B
:1017C000E108F10888EE880E83E0981EA11CB11C88
:1017D000E4CFFF90EF90DF90CF90BF90AF909F90BD
:1017E0008F900895EF92FF920F931F93CF93DF9303
:1017F000EC01EC80FD806E157F050CF070C057FF8A
:1018000004C0240F351F50E040E08E819F81FA0113
:10181000E20FF31F8E179F071CF49C01241B350B4E
:10182000121613060CF05BC0922F842F86958695B6
:1018300086958E9DD0018F9DB00D11246A0F7B1F60
:10184000AF8DB8A1A60FB71F477049F188E0841B80
:10185000482F682F70E0FB01E059FA4FE4912817F8
:1018600008F063C0621B71092FEF30E002C03595AC
:1018700027956A95E2F7E2230130110539F0B0F1BE
:101880000230110561F58C91E82702C08C91E82B9C
:10189000EC93941720F12C813D81A20FB31FE92F07
:1018A000E41BE83078F00230110521F58E2F9C9171
:1018B00090959C932C813D81A20FB31F8850883056
:1018C000B0F7E770EE2359F0F0E0E859FA4FE491F1
:1018D00001301105F9F010F10230110519F1DF9115
:1018E000CF911F910F91FF90EF900895E0958C910B
:1018F000E823CECF81E00115110509F480E0819540
:101900009E2F8C932C813D81A20FB31F985098304D
:10191000C0F7D7CF8C91E82BEC93E1CFE0958C9179
:10192000E823FACF8C91E827F7CF0130110509F4AD
:10193000ADCFE0F20230110509F4A5CFAE0DBF1D09
:10194000AECF0F931F93CF93DF9377FF04C0260F83
:10195000371F70E060E0DC011496CD91DC91FB0153
:10196000E20FF31FCE17DF071CF49E01261B370B77
:10197000121613064CF5FA0157FD3796A3E0F595BC
:10198000E795AA95E1F7EC9FD001ED9FB00DFC9F84
:10199000B00D11246A0F7B1FDC015F96ED91FC9165
:1019A000E60FF71F4770552781E090E001C0880FD0
:1019B0004A95EAF7482F0130110559F0A8F02E0F8B
:1019C0003F1F02301105E1F0DF91CF911F910F9180
:1019D00008952E0F3F1FE217F307B1F38191DF0146
:1019E0001197842B8C93F7CF80952E0F3F1FE21712
:1019F000F30751F39191DF01119798239C93F7CF4F
:101A0000E217F30709F38191DF01119784278C9383
:101A1000F7CF0F931F93FA01DC0156964C9156971E
:101A20004230E9F04330A1F1413061F514964D9117
:101A30005C91DA01AE1BBF0BFD01E21BF30B77FDDE
:101A40000BC0DC0116964D915C916417750724F468
:101A5000AB01BF010E94A10C1F910F910895149634
:101A60004D915C91DA01A61BB70BBD016150710964
:101A7000DC0116964D915C91DA01AE1BBF0BFD01A6
:101A8000E21BF30B77FDE8CFAF010E94F20BE4CF2E
:101A900016964D915C91DA01A61BB70BBD01615002
:101AA0007109CDCF0F931F93FA01DC0156964C912B
:101AB00056974230A9F0433091F1413019F5149610
:101AC0004D915C91DA01AE1BBF0BFD013197F7FD23
:101AD00004C0AB01BF010E94F20B1F910F9108954A
:101AE00014964D915C91DA01A61BB70BBD01DC0188
:101AF00016964D915C91DA01AE1BBF0BFD0131973B
:101B0000621B730BF7FDE9CFDC0116964D915C91DA
:101B1000E417F50714F7AF010E94A10CDECF16966B
:101B20004D915C91DA01A61BB70BBD01621B730BD3
:101B3000CECFFC0177FD64C0808591856817790759
:101B40000CF05EC057FD5CC082859385481759072D
:101B50000CF056C086898230B1F0833029F1813093
:101B600041F484819581841B950BAB01BC016150CC
:101B700071092130310509F108F443C022303105E3
:101B800009F463C0089584819581DC01A61BB70B1D
:101B9000BD016150710986819781DC01A41BB50BE1
:101BA000AD0141505109E5CF86819781861B970B86
:101BB000BA01AC0141505109DCCFCA0157FD07966B
:101BC000A3E095958795AA95E1F7A481B5818A9FB1
:101BD00090018B9F300D9A9F300D1124620F731F5F
:101BE000078CF0A1E02DE60FF71F4770552721E085
:101BF00030E001C0220F4A95EAF78081822B808372
:101C00000895CA0157FD079633E0959587953A9553
:101C1000E1F7A481B5818A9F90018B9F300D9A9F37
:101C2000300D1124620F731F078CF0A1E02DE60F19
:101C3000F71F4770552781E090E001C0880F4A9553
:101C4000EAF7809590818923DACFCA0157FD07967C
:101C500023E0959587952A95E1F7A481B5818A9F20
:101C600090018B9F300D9A9F300D1124620F731FCE
:101C7000078CF0A1E02DE60FF71F4770552721E0F4
:101C800030E001C0220F4A95EAF780818227B7CF62
:101C900008958EBD00000DB407FEFDCF8EB50895EA
:101CA0008CBD9DBD08950895FC016370668B848191
:101CB000958126813781613039F0633029F0918731
:101CC000808733872287089531872087938782878B
:101CD00008952F923F924F925F926F927F928F92D0
:101CE0009F92AF92BF92CF92DF92EF92FF920F93AB
:101CF0001F93CF93DF93CDB7DEB76A970FB6F894F3
:101D0000DEBF0FBECDBF9A8F898F7A8369834A0168
:101D1000D22E18870F833701BC2CDC0159962D91E8
:101D20003C915A972115310509F015C118968D91EE
:101D30009C911997681779070CF0D7C11A968D9165
:101D40009C91481759070CF0D0C14C2C512CB6E08F
:101D5000CB9E600D711D11247C876B8716161706AC
:101D60000CF0C3C1EA2DF0E0FA87E98793E0EE0FAB
:101D7000FF1F9A95E1F7F88BEF87CF01840F951F2E
:101D8000181619060CF0B1C1A98DBA8D58968C9110
:101D9000811104C0BFEABD1508F4D394A98DBA8D92
:101DA000ED91FC9111970284F385E02DCD01099509
:101DB000B5E0DB9EC0011124E981FA81FC83EB834D
:101DC000312C212C9C0128593F4F388F2F8B4A2DC5
:101DD00050E05E8B4D8BEF89F88DE20DF31D449141
:101DE0009E828D82D12CC12C69817A81620D731DF6
:101DF0007A8B698B842F90E09C8B8B8BE98DFA8D8D
:101E0000A081B18140FF82C0F1E0BF126FC0AF126C
:101E10006DC01C96ED91FC912F813885A4014C0D6D
:101E20005D1D69897A89898D9A8D0995EB89FC896F
:101E3000F595E7954E2F5FEFC51AD50A6D817E8126
:101E40008D899E89680F791F7E836D8398E0C916FE
:101E5000D10481F6AFEF2A1A3A0AEB81FC81E40D36
:101E6000F51DFC83EB83F5E02F16310409F0B3CFA9
:101E70002F81388526153705B9F0A98DBA8DED91DA
:101E8000FC91B1E0BB1257C0AB1255C069817A8199
:101E90006B5F7F4F0088F189E02D830128E030E0FF
:101EA000A401898D9A8D0995A98DBA8DED91FC912A
:101EB00011970688F789E02DCD016A960FB6F89440
:101EC000DEBF0FBECDBFDF91CF911F910F91FF906D
:101ED000EF90DF90CF90BF90AF909F908F907F90CA
:101EE0006F905F904F903F902F9009941E96ED91C8
:101EF000FC91EF80F88409851A8592014D815E81FD
:101F00006B817C81898D9A8D099590CF2F81388541
:101F10002615370509F48ACF31E0B31207C0A312A2
:101F200005C01C96ED91FC91930178CF1E96ED9122
:101F3000FC917301E0CF6B857C856419750906847B
:101F4000F785E02D73010F8518899201A401898D11
:101F50009A8D0995A9CFF9013496949132974591BC
:101F60005491D91AB7E0DB9E400D511D1124F9019F
:101F7000259134913C8B2B8BFA0125903490FA01FA
:101F80003296749031963491398B329664903196B2
:101F9000449041E04C1518F04A1508F07FC0662DBA
:101FA000062C000C770B7C836B83842D042C000C97
:101FB000990B9E838D83A98DBA8DED91FC9111971C
:101FC0000284F385E02DCD010995512CD12CC12C33
:101FD000EA2DF0E0FA87E9872B2D30E03C872B874C
:101FE000A401440D511D47FC5A95588F4F8B6981B0
:101FF0007A81660D711D67FC7A957E876D87798978
:10200000C71608F051CF2C2D30E04D815E81420F74
:10201000531FA985BA854A9FC0014B9F900D5A9FB7
:10202000900D1124FC01E80DF91DF88BEF87852D2B
:10203000612C4F89588D420F531F5E8B4D8B671457
:1020400008F050C044244394480E877041F4C10105
:102050000196EB89FC89E20DF31DD4901C01D7FE9B
:1020600019C0A98DBA8DED91FC91662D70E0B1E09B
:10207000BB1219C0AB1217C02D853E85620F731FAE
:102080000484F585E02D2F8138854D895E89898D01
:102090009A8D0995DD0C6394842DD1CF1E821D820B
:1020A0001C821B8288CF4B815C81640F751FAB85BE
:1020B000BC856A9FC0016B9F900D7A9F900D112483
:1020C00069817A81680F791F0684F785E02DEF809A
:1020D000F88409851A859D014F855889898D9A8DC7
:1020E0000995D8CF570CC3948ACF6A960FB6F89447
:1020F000DEBF0FBECDBFDF91CF911F910F91FF903B
:10210000EF90DF90CF90BF90AF909F908F907F9097
:102110006F905F904F903F902F9008958F929F9275
:10212000AF92CF92EF92FF920F931F93CF93DF93D3
:10213000EC01262F898D9A8D009709F051C06A30E5
:10214000D1F41D861C868D8948E0849F900111245E
:102150008E859F85820F931F9F878E8781E090E0F9
:10216000DF91CF911F910F91FF90EF90CF90AF90A3
:102170009F908F9008956D3089F3CC88AD888F89BA
:102180008823C1F08C859D8536E0C39E800D911D0E
:102190001124488559854817590764F44E855F8591
:1021A0001D861C8638E0A39EC0011124840F951F54
:1021B0009F878E87EA88FB88088919894E855F8505
:1021C0006C857D85CE010E94690E2C898C859D854C
:1021D00046E0249F800D911D11249D878C87BECFE2
:1021E0006A3069F41D861C86FC013896E4912D89BD
:1021F0008E859F85E29F800D911D1124ADCF6D309E
:1022000009F4ACCFFC0134963491631708F4A6CFDF
:102210003296E491E61708F4A1CFFC01329685903E
:102220009490462F431B342F47E0349F800C911C21
:102230001124F401329634913196E4913323A9F1BB
:10224000EE2399F1CC88F4013596E491AD884F895D
:10225000442301F10E2E000CFF0BE30FF11DCE9E67
:10226000A001CF9E500D11246C857D85460F571F10
:1022700068857985641775076CF44E855F851D86C2
:102280001C86FC013896E491AE9E400D511D112430
:102290005F874E87EA88FB88088919894E855F85A4
:1022A0006C857D85CE010E94690EF4013496E4911F
:1022B0002C898C859D85E29F800D911D11248DCFE9
:1022C0006F927F928F929F92AF92BF92CF92DF9246
:1022D000EF92FF920F931F93CF93DF93EC016B016B
:1022E0005A0139014801E881F9810284F385E02D22
:1022F0000995E881F9810288F389E02D870193012E
:10230000A501B601CE010995A501480D591D415001
:102310005109E881F9810288F389E02D9301B60122
:10232000CE010995E881F9810088F189E02D9401B9
:10233000A501B601CE010995C60CD71CB6016150A6
:102340007109E881F9810088F189E02D9401A501E6
:10235000CE010995E881F9810688F789E02DCE0143
:10236000DF91CF911F910F91FF90EF90DF90CF9071
:10237000BF90AF909F908F907F906F9009946F92D5
:102380007F928F929F92AF92BF92CF92DF92EF9205
:10239000FF920F931F93CF93DF935C01EB016A01D0
:1023A000490138018701DC01ED91FC916217730747
:1023B00019F5641675062CF0962D872D3A01C92E55
:1023C000D82E9601261937092F5F3F4F048CF58DC3
:1023D000E02DA301BE01C5010995DF91CF911F91A9
:1023E0000F91FF90EF90DF90CF90BF90AF909F90B4
:1023F0008F907F906F9008954615570591F426179A
:10240000370724F0892D4B01C22FD82F9E012819A0
:1024100039092F5F3F4F068CF78DE02DA601B401DF
:10242000DACF0284F385E02D0995D501ED91FC9179
:102430000488F589E02D83019401A601BE01C50140
:102440000995D501ED91FC910688F789E02DC5012C
:10245000DF91CF911F910F91FF90EF90DF90CF9080
:10246000BF90AF909F908F907F906F900994EF9264
:10247000FF920F931F93DC011A960D911C911B97ED
:1024800018962D913C911997ED91FC9100A0F1A126
:10249000E02D7B0150E040E070E060E009951F9185
:1024A0000F91FF90EF9008954F925F926F927F92FD
:1024B0008F929F92AF92BF92CF92DF92EF92FF9254
:1024C0000F931F93CF93DF936C012B015A013901B6
:1024D0004801DC01ED91FC910284F385E02D099522
:1024E000E201640C751CD601ED91FC91C615D7056F
:1024F0005CF40088F189E02D87019401A501BE01FB
:10250000C60109952196EFCF0688F789E02DC6010F
:10251000DF91CF911F910F91FF90EF90DF90CF90BF
:10252000BF90AF909F908F907F906F905F904F90F3
:1025300009948F929F92AF92BF92CF92DF92EF92C7
:10254000FF920F931F93CF93DF93EC015B014A013E
:102550006901E881F9810284F385E02D09959501EF
:102560002C0D3D1D21503109E881F9810488F58940
:10257000E02D78018401A401B501CE010995E8811F
:10258000F9810688F789E02DCE01DF91CF911F9167
:102590000F91FF90EF90DF90CF90BF90AF909F9002
:1025A0008F9009948F929F92AF92BF92CF92DF92B9
:1025B000EF92FF920F931F93CF93DF93EC015B0198
:1025C0004A0169017801E881F9810284F385E02DEF
:1025D0000995C80CD91C860101501109E881F981BF
:1025E0000488F589E02D9501A401B501CE01099576
:1025F000E881F9810688F789E02DCE01DF91CF913E
:102600001F910F91FF90EF90DF90CF90BF90AF9010
:102610009F908F900994EF92FF920F931F93DC018C
:10262000ED91FC9100A0F1A1E02D09951F910F9172
:10263000FF90EF9008950F931F93DC01ED91FC91B3
:10264000068CF78DE02D09951F910F9108950F933A
:102650001F93DC01ED91FC91048CF58DE02D099523
:102660001F910F910895DC01ED91FC910084F1859B
:10267000E02D09943F924F925F926F927F928F92DA
:102680009F92AF92BF92CF92DF92EF92FF920F9301
:102690001F93CF93DF9300D000D0CDB7DEB75C019E
:1026A0003B016A014901280187E0480E511C93E073
:1026B000559447949A95E1F7CA018E0D9F1D9A8310
:1026C0008983F12CE12C312C1C821B828B819C8113
:1026D00087709927330C892B61F4EB81FC8183E0AF
:1026E000F595E7958A95E1F7EE0DFF1DE80DF91DCB
:1026F000349037FE0AC021E030E0A6016B817C8176
:10270000660D771DC5010E9433138B819C81019654
:102710009C838B8308171907C9F69FEFC91AD90A3A
:10272000E40CF51C89819A81C816D90669F60F90C8
:102730000F900F900F90DF91CF911F910F91FF900D
:10274000EF90DF90CF90BF90AF909F908F907F9051
:102750006F905F904F903F9008952F923F924F92CD
:102760005F926F927F928F929F92AF92BF92CF9221
:10277000DF92EF92FF920F931F93CF93DF9300D0DE
:1027800000D000D0CDB7DEB73C016A013E832D8377
:10279000FC82EB825801A41AB50AB7FE03C0B194BB
:1027A000A194B1088D809E80861A970A97FE03C077
:1027B0009194819491088A149B045CF0902F812F4E
:1027C0000D811E819D838E839C2D8D2D6B01692F24
:1027D000782F0C151D055CF09D818E817E836D83A5
:1027E000692F782F902F812F8601C92ED82E1601A0
:1027F000201A310A2B012D813E81421A530A57FEBD
:1028000003C0519441945108710137FE03C03FEF5A
:10281000E31AF30AF594E7948D819E818617970752
:102820005CF5A1E0B0E0BA83A983C016D1064CF1F3
:10283000D301ED91FC910484F585E02D2B813C8141
:10284000A8016D817E818A149B041CF04D815E81FC
:10285000B801C3010995E418F508F7FE0AC02D81F7
:102860003E8189819A81280F391F3E832D83E20C96
:10287000F31C0F5F1F4FD9CF2FEF3FEF3A83298310
:10288000D4CF26960FB6F894DEBF0FBECDBFDF9132
:10289000CF911F910F91FF90EF90DF90CF90BF905D
:1028A000AF909F908F907F906F905F904F903F90F0
:1028B0002F90089508952091AC01260F3327331FE0
:1028C00021323105ECF42091D001FC0190E080E050
:1028D000243069F082E00895A091AC012191AC010F
:1028E00044575E4FA40FB52FB11D2C930196861748
:1028F00098F38091AC01680F6093AC0180E008957B
:1029000081E008951092D00181E08093D20110926D
:10291000D10161E082E10E94CA0961E083E10E9485
:10292000CA09E9EBF0E080818E7F808380818D7F12
:10293000808388E48093B80085E48093BC00089588
:10294000CF93DF9391E090938B018823B9F0C091EE
:10295000B800D091BA008091BC008A7B8093BC0003
:1029600060E082E10E94CA0960E083E10E94CA0936
:102970000E948214D093BA00C093B800DF91CF9127
:102980000895E091050280910402E81730F4F0E028
:10299000EA59FE4F808190E008958FEF9FEF0895F0
:1029A00090910502809104022FEF3FEF981748F4B1
:1029B000E92FF0E0EA59FE4F208130E09F5F9093CD
:1029C0000502C90108958091040290910502891BB6
:1029D000990B0895CF92DF92EF92FF920F931F937E
:1029E000CF93DF937C01CB018A0120910B0222233C
:1029F00089F0EB016B01C40ED51ECC15DD0569F025
:102A00006991D701ED91FC910190F081E02DC70112
:102A10000995F3CF642F0E945B14C801DF91CF9119
:102A20001F910F91FF90EF90DF90CF900895CF937B
:102A3000DF931F92CDB7DEB7698320910B0222236B
:102A4000F9F020910802203258F021E030E0FC013A
:102A50003383228390E080E00F90DF91CF9108953F
:102A600080910902E82FF0E0EA5BFE4F99819083A4
:102A70008F5F809309028093080281E090E0ECCFA1
:102A800061E0CE0101960E945B14F7CFCF92DF92F6
:102A9000EF92FF920F931F93CF93DF93D091080291
:102AA00081E0D13208F09CC0C0910A020E949A0BCA
:102AB0006B017C018091D00181116CC082E0809318
:102AC000D00181E08093D2018FEF8093CF011092EB
:102AD000F401D093F301A6E4B1E0E3EDF1E080E08E
:102AE000D8138DC01092F5018091F501CC0FC82B41
:102AF000C093F5018091D101813009F084C010921A
:102B0000D1010E949A0B6B017C018091F5018093A9
:102B1000BB008091870190918801A0918901B091BB
:102B20008A01892B8A2B8B2BA1F00E949A0B009192
:102B30008701109188012091890130918A016C19D7
:102B40007D098E099F09061717072807390708F41A
:102B500042C08091BC0083FDD8CF85EC8093BC003F
:102B60000E949A0B6B017C018091D001823009F4A4
:102B70004CC08091CF018F3F09F469C08091CF0193
:102B8000803209F466C08091CF01803309F463C0BC
:102B900084E026C08091870190918801A0918901ED
:102BA000B0918A01892B8A2B8B2B09F483CF0E9449
:102BB0009A0B009187011091880120918901309131
:102BC0008A016C197D098E099F09061717072807C6
:102BD000390708F06FCF809186010E94A01485E02C
:102BE000109209021092080210920B02DF91CF910D
:102BF0001F910F91FF90EF90DF90CF9008959D91DE
:102C000091938F5F6DCF85EEA9CF809187019091D1
:102C10008801A0918901B0918A01892B8A2B8B2B85
:102C200009F4A2CF0E949A0B0091870110918801AC
:102C30002091890130918A016C197D098E099F09C3
:102C4000061717072807390708F08ECFC4CF80E092
:102C5000C7CF82E0C5CF83E0C3CFFF920F931F930E
:102C6000CF93DF93F82ED92FC62F809146029091F3
:102C70004702009709F452C020914A0231E0309394
:102C80000B0220930A021092090210920802DC0142
:102C9000ED91FC910190F081E02D60E009950F2D00
:102CA0001D2FD1E0FF24F394C150809146029091F2
:102CB0004702CF3F61F1D032C8F00E9446158091A3
:102CC00046029091470220914A02F0920B02209313
:102CD0000A021092090210920802DC01ED91FC91A7
:102CE0000190F081E02D60E00995D1E080914602ED
:102CF00090914702F8016491DC01ED91FC91019003
:102D0000F081E02D0995DF5F0F5F1F4FCDCFDF9181
:102D1000CF911F910F91FF900C944615E0915602B0
:102D2000F0915702908180915C0280958923808385
:102D30000F2D1D2FC15008F438C0F8018491209147
:102D4000440230914502232B29F00E94490E0F5F67
:102D50001F4FF0CF28E030E040E8E0915202F091C0
:102D6000530290915A02582F5423D9F05081952B39
:102D70009083E0915402F0915502908150915B0252
:102D8000952B9083E0915402F091550250819091DF
:102D90005B02909595239083469521503109E9F681
:102DA000D6CF508190959523E3CFDF91CF911F919E
:102DB0000F91FF9008951F93CF93DF93EC018D8DBA
:102DC0009E8D009721F1162F29A131E030930B023F
:102DD00020930A021092090210920802DC01ED9180
:102DE000FC910190F081E02D60E009958D8D9E8D24
:102DF000DC01ED91FC910190F081E02D612F0995AE
:102E00008D8D9E8DDF91CF911F910C944615ADA5B0
:102E1000BEA59C918BA9809589238C938B8D9C8DCD
:102E2000892B31F0862FDF91CF911F910C94490EA1
:102E300028E030E080E8A9A5BAA599A9462F482343
:102E4000C1F04C91942B9C93ABA5BCA59C914AA935
:102E5000942B9C93ABA5BCA54C919AA990959423D7
:102E60009C9386952150310931F7DF91CF911F91C5
:102E700008954C9190959423E6CFEF92FF920F9393
:102E80001F93CF93DF938091460290914702892B45
:102E900009F493C020915E0230915F02409160027C
:102EA0005091610260E074E284EF90E00E94A720FC
:102EB0002051310941095109569547953795279574
:102EC0002093B80065E082E592E10E942D166091A2
:102ED0002D02615089E292E00E94DB1620912F02C0
:102EE00030913002C901079697FD079623E095952A
:102EF00087952A95E1F720912D0230912E02829F2D
:102F00008001839F100D929F100D1124C0914802E3
:102F1000D091490280914602909147020C0F1D1FEB
:102F2000009709F489C020914A0231E030930B02E6
:102F300020930A021092090210920802DC01ED911E
:102F4000FC910190F081E02D60E40995FF24F39459
:102F5000EE24E39480914602909147020C171D07DE
:102F600009F442C0BFE1BF15D0F40E94461580911C
:102F700046029091470220914A02E0920B02209370
:102F80000A021092090210920802DC01ED91FC91F4
:102F90000190F081E02D60E40995FF24F394809185
:102FA0004602909147026991DC01ED91FC910190FC
:102FB000F081E02D0995F394CDCF8091440290915A
:102FC0004502892B31F080916702909168020E943E
:102FD000500EE0915802F0915902908180915D026B
:102FE0008095892380836ECF0E944615809146028A
:102FF00090914702892B09F460C0209162023091C0
:103000006302409164025091650260E074E284EFD3
:1030100090E00E94A720205131094109510956959D
:103020004795379527952093B800DF91CF911F9151
:103030000F91FF90EF900895E0915602F0915702A2
:10304000808190915C02892B80830C171D0771F29F
:1030500089912091440230914502232B19F00E945E
:10306000490EF3CF28E030E040E8E0915202F091C1
:10307000530290915A02582F5423D9F05081952B26
:103080009083E0915402F0915502908150915B023F
:10309000952B9083E0915402F091550250819091CC
:1030A0005B02909595239083469521503109E9F66E
:1030B000CCCF508190959523E3CFE0915802F091C9
:1030C0005902808190915D02892B8083AECF1F933E
:1030D000CF93DF93EC01162F8D8D9E8D892BB1F14F
:1030E0002DA93EA94FA958AD60E074E284EF90E0AD
:1030F0000E94A72020513109410951095695479551
:10310000379527952093B80066EA111167EACE013A
:103110000E94DB168D8D9E8D892B41F129AD3AAD34
:103120004BAD5CAD60E074E284EF90E00E94A720BC
:1031300020513109410951095695479537952795F1
:103140002093B800DF91CF911F9108958B8D9C8DB6
:10315000892B21F08EAD9FAD0E94500EEFA5F8A9EE
:1031600090818CA9809589238083CECFEFA5F8A983
:1031700080819CA9892B8083E5CF90E080E0089531
:1031800020912F0230913002C901079697FD0796D2
:1031900023E0959587952A95E1F720912D023091AE
:1031A0002E02829FA001839F500D929F500D1124EB
:1031B00070E060E080914802909149020C941822DE
:1031C0000E94132285ED8093BC008091870190912D
:1031D0008801A0918901B0918A010796A11DB11DB6
:1031E00023E0B695A795979587952A95D1F72091D5
:1031F000BC0024FD03C01092D001089540918701C6
:10320000509188016091890170918A01452B462B6C
:10321000472B69F30097A105B10541F025E32A95F5
:10322000F1F700000197A109B109E1CF8091860172
:103230000C94A0141F920F920FB60F9211242F938B
:103240003F934F935F936F937F938F939F93AF932E
:10325000BF93EF93FF938091110290911202A0917E
:103260001302B0911402892B8A2B8B2BD1F19091F0
:103270000C02E0910D02F0910E028081892780837B
:103280008091110290911202A0911302B091140248
:10329000181619061A061B069CF4809111029091CB
:1032A0001202A0911302B09114020197A109B10971
:1032B0008093110290931202A0931302B093140210
:1032C000FF91EF91BF91AF919F918F917F916F91FE
:1032D0005F914F913F912F910F900FBE0F901F90D4
:1032E0001895809100010E94F809EACF1F920F9271
:1032F0000FB60F9211242F933F938F939F93AF9309
:10330000BF938091F7019091F801A091F901B091DC
:10331000FA013091F60123E0230F2D3758F501967D
:10332000A11DB11D2093F6018093F7019093F80140
:10333000A093F901B093FA018091FB019091FC01F7
:10334000A091FD01B091FE010196A11DB11D8093D8
:10335000FB019093FC01A093FD01B093FE01BF918E
:10336000AF919F918F913F912F910F900FBE0F9032
:103370001F90189526E8230F0296A11DB11DD2CFEC
:103380001F920F920FB60F9211242F933F934F93DA
:103390005F936F937F938F939F93AF93BF93EF93BD
:1033A000FF938091B900887F803609F44AC0F0F518
:1033B000883209F4A7C018F5803109F49BC0B8F42D
:1033C000882309F4F9C0883009F494C0FF91EF9183
:1033D000BF91AF919F918F917F916F915F914F912D
:1033E0003F912F910F900FBE0F901F90189588312D
:1033F00009F488C0803251F78093CF0114C0803423
:1034000009F49DC040F48033B9F38833F9F6809312
:10341000CF0185ECB0C0803509F485C0883509F44A
:1034200096C0883499F60E94E218D0CF883909F402
:103430008CC038F5883729F050F4883611F0803781
:1034400029F683E08093D0011092CE0157C08838CE
:1034500009F47BC0803919F0803809F0B7CF80912A
:10346000CE01803208F071C0E091CE0181E08E0F74
:103470008093CE018091BB00F0E0E255FE4F808347
:103480003DC0803B39F0E0F4803A09F479C0883AD5
:1034900009F09CCF84E08093D0011092AD0110928E
:1034A000AC01E0910202F091030209958091AC0118
:1034B00081110FC081E08093AC0110928C0109C092
:1034C000803C09F4A6CF883C09F4A3CF883B09F0DF
:1034D0007DCFE091AD0181E08E0F8093AD01F0E0F2
:1034E000E457FE4F80818093BB009091AD018091A5
:1034F000AC0129C08091F5018093BB0085EC8093DD
:10350000BC0064CF9091F4018091F301981758F5B5
:10351000E091F40181E08E0F8093F401F0E0ED5230
:10352000FE4F8081E9CFE091F40181E08E0F80931E
:10353000F4018091BB00F0E0ED52FE4F808390914A
:10354000F4018091F3019817C8F285E8D8CFE09193
:10355000F40181E08E0F8093F4018091BB00F0E0D4
:10356000ED52FE4F80838091D20181115CCF81E0CA
:103570008093D10184EA8093BC001092D00126CFC1
:1035800085EC8093BC001092D0018091CE018032F6
:1035900030F4E091CE01F0E0E255FE4F10826091F0
:1035A000CE0170E0E0910002F09101028EEA91E01C
:1035B00009951092CE010ACF1092CF0134CFCF924D
:1035C000DF92EF92FF920F931F93E82FF92F05C020
:1035D000015011092109310961F190819623941755
:1035E000B9F305C0015011092109310911F1908188
:1035F00096239413F7CFC12CD12CE12CF12C0AC0C7
:103600008FEFC81AD80AE80AF80A0C151D052E050E
:103610003F0579F080818623841791F36C2D7D2DF1
:103620008E2D9F2D1F910F91FF90EF90DF90CF90E7
:10363000089560E070E080E090E01F910F91FF90AE
:10364000EF90DF90CF900895ADE1B2E013961C9219
:103650001E92129748EE53E060E070E014964D938E
:103660005D936D937C9317978BE091E011969C93FB
:103670008E93E9E2F2E01382128220E830E0358393
:10368000248380E290E09783868331872087938725
:103690008287168A158614861786168681E0858BA2
:1036A000848B2FEF3FEF338B228B318B208B878BDB
:1036B000108E128E118E8DE191E091838083148E95
:1036C000138EB68FA58F10A2178E8FEF84A385A3BC
:1036D00086A387A380A780E89AE1A6E0B0E085AB47
:1036E00096ABA7ABB0AF80EA96E8A1E0B0E081AFBF
:1036F00092AFA3AFB4AF80E586AF17AE08957894CC
:1037000084B5826084BD84B5816084BD85B58260E6
:1037100085BD85B5816085BD80916E008160809397
:103720006E00109281008091810082608093810000
:103730008091810081608093810080918000816010
:10374000809380008091B10084608093B10080916B
:10375000B00081608093B00080917A008460809393
:103760007A0080917A00826080937A0080917A005A
:10377000816080937A0080917A00806880937A00DB
:103780001092C10061E082E00E94240A60E087E0BC
:103790000E94240A61E08CE00E94240A60E08BE031
:1037A0000E94240A61E088E00E94240A8091480275
:1037B00090914902892B39F10E94C01880912F0203
:1037C0009091300260912D0270912E02813291050C
:1037D0000CF06AC0AC014052510957FF02C04F5F64
:1037E0005F4F559547956357710977FF02C06F5F2B
:1037F0007F4F75956795E0E2EE2EF12C03E710E020
:1038000024E935E069C020912F0230913002C901CE
:10381000079697FD0796D3E095958795DA95E1F79A
:1038200020912D0230912E02AC01429FC001439F96
:10383000900D529F900D11240E94EE20909349020A
:1038400080934802892B09F0B7CF4BE3242E4AE03E
:10385000342E5EE5452E52E1552ECCE7D2E162E6EC
:10386000A62E62E1B62E70E8872E72E1972EE0E078
:10387000CE2EE0E0DE2E66246394712CF10184915B
:10388000F2011491FE010491011112C2109207027B
:103890001092060261E082E00E94CA09C114D104BC
:1038A00069F30E940000EACFAC014054510957FF70
:1038B00002C04F5F5F4F559547956255710977FF7D
:1038C00002C06F5F7F4F75956795B0E4EB2EF12CCA
:1038D00002E510E024E737E089E292E00E943A1323
:1038E0008CE380934B028091460290914702892B92
:1038F00009F4E8C080912F0290913002809709F47A
:10390000DFC08DE380934A021092050210920402F8
:1039100010920902109208020E94821482E799E034
:10392000909303028093020283E799E0909301024F
:10393000809300028091510287FD1EC061E00E94C9
:10394000240A61E0809151020E94CA0961E070E09E
:1039500080E090E00E94BF0B60E0809151020E94E5
:10396000CA096AE070E080E090E00E94BF0B61E06D
:10397000809151020E94CA098091460290914702AB
:10398000892B09F45EC120915E0230915F02409163
:1039900060025091610260E074E284EF90E00E9466
:1039A000A72020513109410951095695479537956E
:1039B00027952093B80064E080E995E00E942D16D9
:1039C00060912F02615089E292E00E94DB1664E070
:1039D0008CE895E00E942D1680914B0264E18130C5
:1039E00009F460E189E292E00E94DB1664E088E875
:1039F00095E00E942D168FE88093660280912D023B
:103A000090912E028038910509F034C180912F02E7
:103A1000909130028034910509F03CC180914B02B5
:103A2000813009F425C18FEC80936602C2E16AED12
:103A300089E292E00E94DB166C2F89E292E00E94FC
:103A4000DB1661E889E292E00E94DB166091660273
:103A500089E292E00E94DB1669ED89E292E00E9421
:103A6000DB1680914B0261EF813009F462E289E25A
:103A700092E00E94DB1666E082E895E00E942D1637
:103A80008091460290914702892B09F407C1209149
:103A9000620230916302409164025091650260E0DD
:103AA00074E284EF90E00E94A7202051310941097F
:103AB000510956954795379527952093B800C5CE5F
:103AC0008CE320CF61E080914F020E94240A61E0E4
:103AD000809150020E94240A80914F02082E000C0F
:103AE000990BFC01EB58FD4EE491F0E0EE0FFF1F47
:103AF000E559FD4E2591349130935702209356029B
:103B0000FC01E95AFD4EE491E0935C028091500281
:103B1000082E000C990BFC01EB58FD4EE491F0E0EF
:103B2000EE0FFF1FE559FD4EA591B491B0935902D8
:103B3000A0935802FC01E95AFD4EE491E0935D0226
:103B40008C91E82BEC938091440290914502892B53
:103B500009F434C0CFB7F8948091FF01811127C0D8
:103B6000EFE7F2E18491E1E6F2E19491E82FF0E0F1
:103B7000EE0FFF1FE858FA4FA591B491EC91E9239D
:103B800021F461E08AE00E94CA0961E08AE00E94B3
:103B9000240A8CB580618CBD8CB580648CBD61E0DD
:103BA0008DE00E94240A61E08BE00E94240A80914B
:103BB000FF018F5F8093FF01CFBFBCCE61E080919A
:103BC0004D020E94240A61E080914E020E94240A64
:103BD00080914D02082E000C990BFC01EB58FD4E14
:103BE000E491F0E0EE0FFF1FE559FD4E2591349171
:103BF0003093530220935202FC01E95AFD4EE491A6
:103C0000E0935A0280914E02082E000C990BFC01A1
:103C1000EB58FD4EE491F0E0EE0FFF1FE559FD4E2D
:103C2000A591B491B0935502A0935402FC01E95AB6
:103C3000FD4EE491E0935B028C91E095E823EC93D8
:103C400079CE8091440290914502892B31F0809188
:103C50006702909168020E94500EE0915802F09124
:103C60005902908180915D02809589238083A3CE43
:103C70008FE9DACE8036910569F480912F02909118
:103C80003002409739F480914B02813029F08FEA5D
:103C900080936602C2E0CBCE80E1FACFE091580279
:103CA000F0915902808190915D02892B8083CDCD66
:103CB00081110E94A109E02FF0E0EE0FFF1FE85BE9
:103CC000F54FA591B4918C91182309F4DFCD709232
:103CD00007026092060260E082E00E94CA098CE25C
:103CE00091E00E94550A64E670E080E090E00E9456
:103CF000BF0B84EF91E00E94550A64E670E080E01B
:103D000090E00E94BF0B8CE291E00E94550A64E6AD
:103D100070E080E090E00E94BF0B88E00E94F8090C
:103D20000E94C01890E2E92EF12C00E810E022E594
:103D300030E150E040E070E060E089E292E00E9413
:103D40003A130E943D1760ED77E080E090E00E941A
:103D5000BF0B0E94C01822E53EE050E040E070E05A
:103D600060E089E292E00E943A130E943D1762E30C
:103D700070E080E090E00E94BF0B0E94C0180E949B
:103D80003D1768EC70E080E090E00E94BF0B60E0BF
:103D90008CE00E94CA0960E070E0CB010E94BF0B7A
:103DA00061E08CE00E94CA0960E070E0CB010E94F3
:103DB000BF0B60E08CE00E94CA09F5016491F40138
:103DC0008491E82FF0E0EE0FFF1FE85BF54F85913F
:103DD000949100E412E42FE030E0462F0E94DF1AB5
:103DE000611571058105910529F06F5F7F4F8F4F38
:103DF0009F4F9F700E94AE1F26E933E44BE05DE3C6
:103E00000E94122020E030E040E05FE30E94122098
:103E10000E94761F603171050CF040CD8CE291E07C
:103E20000E94550A64E670E080E090E00E94BF0BBB
:103E300084EF91E00E94550A64E670E080E090E033
:103E40000E94BF0B88E592E00E94550A64E670E08C
:103E500080E090E00E94BF0B88E00E94F8090E9479
:103E6000C01880E2E82EF12C00E810E022E53CE0EA
:103E700050E040E070E060E089E292E00E943A1396
:103E80000E943D1760ED77E080E090E00E94BF0B5C
:103E90000E94C01822E53AE050E040E070E060E0A7
:103EA00089E292E00E943A130E943D1762E370E0BB
:103EB00080E090E00E94BF0B0E94C0180E943D1756
:103EC00068EC70E080E090E00E94BF0BE7CC8DE1F1
:103ED00091E090932A028093290280914802909168
:103EE0004902009711F00C948A2108950E947D1FC9
:103EF0006894B1110C940C2008950E94F11F88F071
:103F00009F5798F0B92F9927B751B0F0E1F0660F9D
:103F1000771F881F991F1AF0BA95C9F714C0B130DE
:103F200091F00E940B20B1E008950C940B20672FB4
:103F3000782F8827B85F39F0B93FCCF3869577950D
:103F40006795B395D9F73EF49095809570956195F6
:103F50007F4F8F4F9F4F0895E89409C097FB3EF421
:103F600090958095709561957F4F8F4F9F4F9923C6
:103F7000A9F0F92F96E9BB279395F6958795779544
:103F80006795B795F111F8CFFAF4BB0F11F460FF04
:103F90001BC06F5F7F4F8F4F9F4F16C0882311F05C
:103FA00096E911C0772321F09EE8872F762F05C070
:103FB000662371F096E8862F70E060E02AF09A950B
:103FC000660F771F881FDAF7880F9695879597F900
:103FD000089557FD9058440F551F59F05F3F71F0F9
:103FE0004795880F97FB991F61F09F3F79F0879560
:103FF0000895121613061406551FF2CF4695F1DFE9
:1040000008C0161617061806991FF1CF8695710578
:10401000610508940895E894BB2766277727CB01AC
:1040200097F908950E9425200C9496200E948820DC
:1040300038F00E948F2020F0952311F00C947F20FF
:104040000C94852011240C940C200E94E91F70F31D
:10405000959FC1F3950F50E0551F629FF001729F2D
:10406000BB27F00DB11D639FAA27F00DB11DAA1F3C
:10407000649F6627B00DA11D661F829F2227B00D89
:10408000A11D621F739FB00DA11D621F839FA00D14
:10409000611D221F749F3327A00D611D231F849F64
:1040A000600D211D822F762F6A2F11249F575040BB
:1040B0009AF0F1F088234AF0EE0FFF1FBB1F661F36
:1040C000771F881F91505040A9F79E3F510580F0FF
:1040D0000C947F200C940C205F3FE4F3983ED4F3C3
:1040E000869577956795B795F795E7959F5FC1F7A3
:1040F000FE2B880F911D9695879597F9089597F94E
:104100009F6780E870E060E008959FEF80EC08957D
:1041100000240A94161617061806090608950024A6
:104120000A9412161306140605060895092E039420
:10413000000C11F4882352F0BB0F40F4BF2B11F494
:1041400060FF04C06F5F7F4F8F4F9F4F0895A1E2C4
:104150001A2EAA1BBB1BFD010DC0AA1FBB1FEE1F01
:10416000FF1FA217B307E407F50720F0A21BB30B4C
:10417000E40BF50B661F771F881F991F1A9469F7C8
:1041800060957095809590959B01AC01BD01CF0124
:104190000895052E97FB1EF400940E94E02057FD21
:1041A00007D00E94A72007FC03D04EF40C94E02017
:1041B00050954095309521953F4F4F4F5F4F089553
:1041C00090958095709561957F4F8F4F9F4F089583
:1041D000EE0FFF1F0590F491E02D09940F931F93AC
:1041E000CF93DF938230910510F482E090E0E0916C
:1041F0006B02F0916C0230E020E0B0E0A0E030977C
:1042000099F42115310509F44AC0281B390B2430D3
:104210003105D8F58A819B816115710589F1FB0112
:1042200093838283FE0111C04081518102811381F9
:1042300048175907E0F04817590799F4109761F0AB
:1042400012960C93129713961C933296CF01DF911E
:10425000CF911F910F91089500936B0210936C0200
:10426000F4CF2115310551F04217530738F0A90159
:10427000DB019A01BD01DF01F801C1CFEF01F9CFE8
:1042800090936C0280936B02CDCFFE01E20FF31F7F
:10429000819391932250310939832883D7CF20917C
:1042A000690230916A02232B41F42091030130917D
:1042B000040130936A022093690220910101309138
:1042C00002012115310541F42DB73EB7409105019A
:1042D00050910601241B350BE0916902F0916A02AE
:1042E000E217F307A0F42E1B3F0B2817390778F0CD
:1042F000AC014E5F5F4F2417350748F04E0F5F1F2C
:1043000050936A0240936902819391939FCFF0E0AA
:10431000E0E09CCFCF93DF930097E9F0FC01329768
:1043200013821282A0916B02B0916C02ED0130E019
:1043300020E01097A1F420813181820F931F2091FA
:10434000690230916A022817390709F061C0F093B9
:104350006A02E0936902DF91CF910895EA01CE17D6
:10436000DF07E8F54A815B819E0141155105B1F7F0
:10437000E901FB83EA8349915991C40FD51FEC17DA
:10438000FD0761F4808191810296840F951FE901F8
:1043900099838883828193819B838A83F0E0E0E024
:1043A00012968D919C9113970097B9F52D913C91A0
:1043B0001197CD010296820F931F209169023091CF
:1043C0006A022817390739F6309751F510926C02B6
:1043D00010926B02B0936A02A0936902BCCFD383A0
:1043E000C28340815181840F951FC817D90761F49A
:1043F0004E5F5F4F88819981480F591F51834083D9
:104400008A819B81938382832115310509F0B0CF86
:10441000F0936C02E0936B029ECFFD01DC01C0CFF4
:1044200013821282D7CF81E090E0F8940C941F227F
:10443000DC0101C06D9341505040E0F7089519E050
:10444000C6E4D9E004C0FE010E94E8202196C734EA
:08445000D107C9F7F894FFCF72
:10445800FF00006D028000000000001715EA14BD7F
:10446800187109E314D014C114000000008E1074F0
:1044780009BD185A14990D710933130B1327131B0F
:1044880013AD137109540E6718090D520D541237E4
:0644980012BF11601100CB
:107E0000112484B714BE81FFF0D085E080938100F7
:107E100082E08093C00088E18093C10086E0809377
:107E2000C20080E18093C4008EE0C9D0259A86E02C
:107E300020E33CEF91E0309385002093840096BBD3
:107E4000B09BFECF1D9AA8958150A9F7CC24DD24C4
:107E500088248394B5E0AB2EA1E19A2EF3E0BF2EE7
:107E6000A2D0813461F49FD0082FAFD0023811F036
:107E7000013811F484E001C083E08DD089C08234E0
:107E800011F484E103C0853419F485E0A6D080C0E4
:107E9000853579F488D0E82EFF2485D0082F10E0AE
:107EA000102F00270E291F29000F111F8ED06801E7
:107EB0006FC0863521F484E090D080E0DECF843638
:107EC00009F040C070D06FD0082F6DD080E0C81688
:107ED00080E7D80618F4F601B7BEE895C0E0D1E017
:107EE00062D089930C17E1F7F0E0CF16F0E7DF06D8
:107EF00018F0F601B7BEE89568D007B600FCFDCFD4
:107F0000A601A0E0B1E02C9130E011968C91119780
:107F100090E0982F8827822B932B1296FA010C0160
:107F200087BEE89511244E5F5F4FF1E0A038BF0790
:107F300051F7F601A7BEE89507B600FCFDCF97BE46
:107F4000E89526C08437B1F42ED02DD0F82E2BD052
:107F50003CD0F601EF2C8F010F5F1F4F84911BD097
:107F6000EA94F801C1F70894C11CD11CFA94CF0C13
:107F7000D11C0EC0853739F428D08EE10CD085E9AC
:107F80000AD08FE07ACF813511F488E018D01DD067
:107F900080E101D065CF982F8091C00085FFFCCF94
:107FA0009093C60008958091C00087FFFCCF809118
:107FB000C00084FD01C0A8958091C6000895E0E648
:107FC000F0E098E1908380830895EDDF803219F02E
:107FD00088E0F5DFFFCF84E1DECF1F93182FE3DFCA
:107FE0001150E9F7F2DF1F91089580E0E8DFEE27F6
:047FF000FF270994CA
:027FFE00040479
:0400000300007E007B
:00000001FF
