:100000000C9447090C946F090C946F090C946F09B8
:100010000C946F090C946F090C946F090C94FA19E5
:100020000C946F090C946F090C946F090C946F0970
:100030000C946F090C946F090C946F090C946F0960
:100040000C94AE1A0C946F090C947C1A0C94561AEA
:100050000C946F090C946F090C946F090C946F0940
:100060000C94F81A0C946F0900000000003E5B4FDE
:100070005B3E3E6B4F6B3E1C3E7C3E1C183C7E3C08
:10008000181C577D571C1C5E7F5E1C00183C180016
:10009000FFE7C3E7FF0018241800FFE7DBE7FF30A6
:1000A000483A060E2629792926407F050507407F14
:1000B00005253F5A3CE73C5A7F3E1C1C08081C1C87
:1000C0003E7F14227F22145F5F005F5F06097F017D
:1000D0007F006689956A606060606094A2FFA29468
:1000E00008047E040810207E201008082A1C080836
:1000F0001C2A08081E101010100C1E0C1E0C303884
:100100003E3830060E3E0E06000000000000005F84
:1001100000000007000700147F147F14242A7F2AA0
:100120001223130864623649562050000807030062
:10013000001C2241000041221C002A1C7F1C2A08AE
:10014000083E080800807030000808080808000011
:1001500060600020100804023E5149453E00427F85
:10016000400072494949462141494D331814127FD4
:100170001027454545393C4A494931412111090774
:100180003649494936464949291E000014000000F5
:1001900040340000000814224114141414140041C7
:1001A00022140802015909063E415D594E7C121184
:1001B000127C7F494949363E414141227F414141BC
:1001C0003E7F494949417F090909013E4141517337
:1001D0007F0808087F00417F41002040413F017FA8
:1001E000081422417F404040407F021C027F7F0470
:1001F00008107F3E4141413E7F090909063E4151B9
:10020000215E7F09192946264949493203017F01A8
:10021000033F4040403F1F2040201F3F4038403FA9
:10022000631408146303047804036159494D4300BF
:100230007F4141410204081020004141417F0402F6
:10024000010204404040404000030708002054548D
:1002500078407F284444383844444428384444286B
:100260007F385454541800087E090218A4A49C78BE
:100270007F0804047800447D40002040403D007F1A
:100280001028440000417F40007C047804787C08FA
:100290000404783844444438FC18242418182424CE
:1002A00018FC7C08040408485454542404043F44B3
:1002B000243C4040207C1C2040201C3C4030403CE2
:1002C00044281028444C9090907C4464544C440042
:1002D00008364100000077000000413608000201A6
:1002E0000204023C2623263C1EA1A161123A404092
:1002F000207A38545455592155557941225454780F
:1003000042215554784020545579400C1E527212A7
:100310003955555559395454545939555454580030
:1003200000457C410002457D420001457C407D1234
:1003300011127DF0282528F07C5455450020545496
:100340007C547C0A097F4932494949323A44444441
:100350003A324A4848303A4141217A3A424020787C
:10036000009DA0A07D3D4242423D3D4040403D3C7D
:1003700024FF2424487E4943662B2FFC2F2BFF09A2
:1003800029F620C0887E0903205454794100004496
:100390007D413048484A32384040227A007A0A0A81
:1003A000727D0D19317D2629292F282629292926F4
:1003B00030484D4020380808080808080808382F39
:1003C00010C8ACBA2F102834FA00007B00000814C3
:1003D0002A142222142A14085500550055AA55AA99
:1003E00055AAFF55FF55FF000000FF00101010FF39
:1003F00000141414FF001010FF00FF1010F010F094
:10040000141414FC001414F700FF0000FF00FF1484
:1004100014F404FC141417101F10101F101F1414D0
:10042000141F00101010F0000000001F101010101A
:100430001F10101010F010000000FF10101010100E
:1004400010101010FF10000000FF140000FF00FF4C
:1004500000001F10170000FC04F4141417101714E8
:1004600014F404F40000FF00F7141414141414140A
:10047000F700F7141414171410101F101F1414147D
:10048000F4141010F010F000001F101F0000001FE7
:1004900014000000FC140000F010F01010FF10FF1A
:1004A000141414FF141010101F00000000F010FFAF
:1004B000FFFFFFFFF0F0F0F0F0FFFFFF0000000093
:1004C00000FFFF0F0F0F0F0F3844443844FC4A4A17
:1004D0004A347E02020606027E027E0263554941CC
:1004E000633844443C04407E201E2006027E020203
:1004F00099A5E7A5991C2A492A1C4C7201724C3017
:100500004A4D4D303048784830BC625A463D3E49ED
:100510004949007E0101017E2A2A2A2A2A44445F91
:10052000444440514A444040444A51400000FF0185
:1005300003E080FF000008086B6B08361236243693
:10054000060F090F060000181800000010100030F8
:1005500040FF0101001F01011E00191D1712003C80
:100560003C3C3C0000000000000103070F1F3F7FE0
:100570000080C0E0F0F8FCFE00000000240027002E
:100580002A00DB40A4A62EAF2000A1C8D300408DD6
:10059000AED580A800006000000000000000000050
:1005A0000000000000E0000000000000000000006B
:1005B00000000001E000000000000000000000005A
:1005C000000001F00000000000000000000000003A
:1005D0000003F00000000000000000000000000028
:1005E00007F000000000000000000000000000070D
:1005F000F8000000000000000000000000000FF8FC
:1006000000000003C0007E000001E0007F0FF80042
:10061000000003C000FE000001E000FFEFF8000052
:100620000003C000FE000001E000FFFFF800000032
:1006300003C000F00000000F007FFE7FC000000339
:10064000C000F00000000F003FFE7FF83FF1FBCF3D
:10065000FCFEF3BC3DEFE01FFE7FFF7FFBFFDFFEF4
:10066000FEFFBC3DEFE01FC6FFFF7FFBFFDFFEFE8E
:10067000FFBC3DEFE00FE3C7FE787BC3DE1EF0FF5B
:10068000BC3DEF0007FF87FC787BC3DE1EF0F83C23
:100690003DEF0001FFFFF0007BC3C01EF0F03C3DCA
:1006A000EF0001F37FE03FFBC3CFFEF0F03C3DEFF6
:1006B0000003E33F807FFBC3DFFEF0F03C3DEF0033
:1006C00007E73C00787BC3DE1EF0F03C3DEF0007FF
:1006D000FFBE00787BC3DE1EF0F03C3DEF0007FF5D
:1006E000FE00787BC3DE1EF0F03C3DEF000FFFFE06
:1006F000007FFBFFDFFEF0F03FFDEFE00FFFFF00AC
:100700007FFBFFDFFEF0F03FFDEFE00FF9FF003E63
:1007100079F9CF9EF0F01F3DE7E01FF1FF000000E8
:100720000000000000000000001F80FF007FFFFFAE
:10073000FFFFFFFFFFFFFFE01C007F007FFFFFFFC9
:10074000FEB46D888D18E000001F007FFFFFFFFEE4
:1007500095AD7DB577E000000F007FFFFFFFFEA5A0
:10076000AD9D8D19E0000006007FFFFFFFFEB5ADD7
:10077000EDB57EE0000000000001800000000000F8
:1007800000000000038000000000000000000007DF
:10079000C000000000000000000007C000000000D2
:1007A00000000000000FC00000000000000000007A
:1007B0001FE00000000000000000001FE00000003B
:1007C0000000000000003FE000000000000000000A
:1007D000003FF00000000000000000007FF000007B
:1007E00000000000001FF87FF00000000000000083
:1007F0003FFE7FF0000000000000003FFF7FF000A0
:100800000000000000001FFFFBE0000000000000EF
:10081000000FFFF9FFC00000000000000FFFF9FF0C
:10082000F800000000000007FFF1FFFF00000000DB
:10083000000003FC73FFFF80000000000001FE3F8A
:10084000FFFF80000000000000FF1E0FFF000000FF
:10085000000000007FFE1FFC000000000000003FC1
:10086000FFFFF8000000000000000FDFFFE00000C5
:1008700000000000001F19FFC00000000000000081
:100880003F3CFF00000000000000007E7CF80000FC
:100890000000000000007FFE7C000000000000005F
:1008A00000FFFFFC0000000000000000FFFFFE0052
:1008B00000000000000000FFFFFE0000000000003C
:1008C0000001FFEFFE0000000000000001FFCFFE6E
:1008D0000000000000000003FF07FE000000000011
:1008E000000003FC07FE0000000000000003F0030E
:1008F000FE00000000000000018000FE000000007B
:100900000000000000007E00000000000000000069
:10091000003E000000000000000000000C0000008D
:10092000000000078000FC000003C00000000780FA
:1009300001FC000003C0000000078001FC00000370
:10094000C0000000078001E00000001E000000075A
:100950008001E00000001E007FE3F79FF9FDE778CB
:100960007BDFC0FFF7FFBFFDFDFF787BDFC0FFF738
:10097000FFBFFDFDFF787BDFC0F0F787BC3DE1FFE7
:10098000787BDE00F0F787BC3DE1F0787BDE00008D
:10099000F787803DE1E0787BDE007FF7879FFDE110
:1009A000E0787BDE00FFF787BFFDE1E0787BDE00CB
:1009B000F0F787BC3DE1E0787BDE00F0F787BC3DD7
:1009C000E1E0787BDE00F0F787BC3DE1E0787BDE9C
:1009D00000FFF7FFBFFDE1E07FFBDFC0FFF7FFBFD8
:1009E000FDE1E07FFBDFC07CF3F39F3DE1E03E7B78
:1009F000CFC00000000000000000000000FFFFFF6B
:100A0000FFFFFFFFFFFFFFC0FFFFFFFFFD68DB11E0
:100A10001A31C0FFFFFFFFFD2B5AFB6AEFC0FFFF3B
:100A2000FFFFFD4B5B3B1A33C0FFFFFFFFFD6B5B1E
:100A3000DB6AFDC00000000800020100000304079B
:100A4000000000000000000000000000230026005D
:100A5000290000000000000000000000000000006D
:100A60000000000000000000000000000000000086
:100A70000000000000000000000000000000000076
:100A80000000000000000000000000000000000066
:100A90000000000000000000000000000000000056
:100AA0000000000000000000000000000000000046
:100AB0000000000000000000000000000000000036
:100AC0000000000000000000000000000000000026
:100AD0000000000000000000000000000000000016
:100AE0000000000000000000000000000000000006
:100AF00000000000000000000000000000000000F6
:100B000000000000000000000000000000000000E5
:100B100000000000000000000000000000000000D5
:100B200000000000000000000000000000000000C5
:100B300000000007FFFFFE0000000000007FFFFF35
:100B4000E000001FFFFFFF800000000001FFFFFF2B
:100B5000F800003FFFFFFFC00000000003FFFFFFA1
:100B6000FC00007FFFFFFFE00000000007FFFFFF29
:100B7000FE00007FFFFFFFE00000000007FFFFFF17
:100B8000FE00003FFFFFFFC00000000003FFFFFF6B
:100B9000FC00003FFFFFFFC00000000003FFFFFF5D
:100BA000FC00001FFFFFFF800000000001FFFFFFAF
:100BB000F8000007FFFFFE0000000000007FFFFFBD
:100BC000E000000000000000000000000000000045
:100BD0000000000000000000000000000000000015
:100BE0000000000000000000000000000000000005
:100BF00000000000000000000000000000000000F5
:100C000000000000000000000000000000000000E4
:100C100000000000000000000000000000000000D4
:100C200000000000000000000000000000000000C4
:100C300000000000000000000000000000000000B4
:100C400000000000000000000000000000000000A4
:100C50000000000000000000000000000000000094
:100C60000000000000000000000000000000000084
:100C70000000000000000000000000000000000074
:100C80000000000000000000000000000000000064
:100C90000000000000000000000000000000000054
:100CA000000000007FF800000000000000003FFE90
:100CB00000000003FFFF0000000000000001FFFF34
:100CC00080000003FFFF0000000000000001FFFFA4
:100CD0008000001FFFFFF00000000000000FFFFF7A
:100CE000F000003FFFFFF80000000000003FFFFFA2
:100CF000F800003FFFFFFC0000000000003FFFFF86
:100D0000FC00007FFFFFFE000000000000FFFFFF6F
:100D1000FE0000FFFFFFFF000000000001FFFFFFDB
:100D2000FF0001FFFFFFFF800000000001FFFFFF49
:100D3000FF0001FFFFFFFF800000000003FFFFFF37
:100D4000FF8003FFFFFFFFE00000000007FFFFFF41
:100D5000FFC003FFFFFFFFE00000000007FFFFFFF1
:100D6000FFC007FFFFFFFFE0000000000FFFFFFFD5
:100D7000FFC007FFFFFFFFF0000000000FFFFFFFB5
:100D8000FFE007FFFFFFFFF0000000001FFFFFFF75
:100D9000FFE00FFF8001FFF0000000001FFF800355
:100DA000FFE007FE00003FF0000000000FFC000025
:100DB0007FE00FF800001FF0000000001FF80000A7
:100DC0001FE00FE0000003F0000000001FC0000063
:100DD00007E00780000001F0000000000F000000A5
:100DE00003E0000000000000000000000000000020
:100DF00000000000000000000000000000000000F3
:100E000000000000000000000000000000000000E2
:100E100000000000000000000000000000000000D2
:100E200000000000000000000000000000000000C2
:100E300000000000000000000000000000000000B2
:100E400000000000000000000000000000000000A2
:100E50000000000000000000000000000000000092
:100E60000000000000000000000000000000000082
:100E70000000000000000000000000000000000072
:100E80000000000000000000000000000000000062
:100E90000000000000000000000000000000000052
:100EA0000000000000000000000000000000000042
:100EB0000000000000000000000000000000000032
:100EC0000000000000000000000000000000000022
:100ED0000000000000000000000000000000000012
:100EE0000000000000000000000000000000000002
:100EF00000000000000000000000000000000000F2
:100F000000000000000000000000000000000000E1
:100F100000000000000000000000000000000000D1
:100F200000000000000000000000000000000000C1
:100F300000000007FFFFFE0000000000007FFFFF31
:100F4000E000001FFFFFFF800000000001FFFFFF27
:100F5000F800003FFFFFFFC00000000003FFFFFF9D
:100F6000FC00007FFFFFFFE00000000007FFFFFF25
:100F7000FE00007FFFFFFFE00000000007FFFFFF13
:100F8000FE00003FFFFFFFC00000000003FFFFFF67
:100F9000FC00003FFFFFFFC00000000003FFFFFF59
:100FA000FC00001FFFFFFF800000000001FFFFFFAB
:100FB000F8000007FFFFFE0000000000007FFFFFB9
:100FC000E000000000000000000000000000000041
:100FD0000000000000000000000000000000000011
:100FE0000000000000000000000000000000000001
:100FF00000000000000000000000000000000000F1
:1010000000000000000000000000000000000000E0
:1010100000000000000000000000000000000000D0
:1010200000000000000000000000000000000000C0
:1010300000000000000000000000000000000000B0
:1010400000000000000000000000000000000000A0
:101050000000000000000000000000000000000090
:101060000000000000000000000000000000000080
:101070000000000000000000000000000000000070
:10108000000007E000000000000000000000000079
:1010900007E007F000000000000000000000000072
:1010A0000FE00FFC00000000000000000000000046
:1010B0003FF00FFF000000000000000000000000F3
:1010C000FFF00FFFE000000000000000000000073C
:1010D000FFF00FFFFC000000000000000000003FD8
:1010E000FFF00FFFFE000000000000000000007F86
:1010F000FFF00FFFFF80000000000000000001FF74
:10110000FFF00FFFFFFF0000000000000000FFFFE6
:10111000FFF00FFFFFFFC000000000000003FFFF13
:10112000FFF007FFFFFFFFFC000000003FFFFFFF95
:10113000FFE007FFFFFFFFFC000000003FFFFFFF95
:10114000FFE007FFFFFFFFFC000000003FFFFFFF85
:10115000FFE003FFFFFFFFFC000000003FFFFFFF79
:10116000FFC001FFFFFFFFFC000000003FFFFFFF8B
:10117000FF8001FFFFFFFFFC000000003FFFFFFFBB
:10118000FF8001FFFFFFFFFC000000003FFFFFFFAB
:10119000FF8000FFFFFFFFF8000000001FFFFFFFC0
:1011A000FF00007FFFFFFFF8000000001FFFFFFFB0
:1011B000FE00003FFFFFFFF0000000000FFFFFFFF9
:1011C000FC00001FFFFFFFE00000000007FFFFFF23
:1011D000F800000FFFFFFFC00000000003FFFFFF4B
:1011E000F000000FFFFFFFC00000000003FFFFFF43
:1011F000F0000003FFFFFF800000000001FFFFFF81
:10120000C0000000FFFFFC0000000000003FFFFFE7
:10121000000000003FFFE000000000000007FFFCAE
:1012200000000000000000000000000000000000BE
:1012300000000000000000000000000000000000AE
:10124000000000000000000000000000000000009E
:1012500000002200FF21000102040810204080014C
:1012600002040810200102040810200000000025DC
:101270000028002B000404040404040404020202F5
:10128000020202030303030303025C1C092111246D
:101290001FBECFEFD8E0DEBFCDBF11E0A0E0B1E0D0
:1012A000ECE9F7E402C005900D92A835B107D9F733
:1012B00023E0A8E5B1E001C01D92AC31B207E1F72F
:1012C00019E0C6E4D9E004C02197FE010E948A22F9
:1012D000C534D107C9F70E94DF1C0C94C1230C94BC
:1012E0000000089508950895AF92BF92CF92DF92C3
:1012F000EF92FF920F931F93CF93DF936C017B01CB
:101300008B01040F151FEB015E01AE18BF08C0175B
:10131000D10759F06991D601ED91FC910190F081CE
:10132000E02DC6010995892B79F7C501DF91CF9191
:101330001F910F91FF90EF90DF90CF90BF90AF90F3
:101340000895FC01538D448D252F30E0842F90E0CB
:10135000821B930B541710F0CF96089501970895B0
:10136000FC01918D828D981761F0A28DAE0FBF2F79
:10137000B11D5D968C91928D9F5F9F73928F90E0CF
:1013800008958FEF9FEF0895FC01918D828D98173E
:1013900031F0828DE80FF11D858D90E008958FEF7B
:1013A0009FEF0895FC01918D228D892F90E0805C44
:1013B0009F4F821B91098F73992708958FE292E0C6
:1013C0000E94D20921E0892B09F420E0822F0895A0
:1013D00080E090E0892B29F00E94DE0981110C94B5
:1013E00000000895FC01A48DA80FB92FB11DA35AC8
:1013F000BF4F2C91848D90E001968F739927848F35
:10140000A689B7892C93A089B1898C918370806457
:101410008C93938D848D981306C00288F389E02DF8
:1014200080818F7D80830895EF92FF920F931F93A9
:10143000CF93DF93EC0181E0888F9B8D8C8D981387
:101440001AC0E889F989808185FF15C09FB7F89493
:10145000EE89FF896083E889F989808183708064DF
:1014600080839FBF81E090E0DF91CF911F910F912A
:10147000FF90EF900895F62E0B8D10E00F5F1F4F39
:101480000F731127E02E8C8D8E110CC00FB607FC48
:10149000FACFE889F989808185FFF5CFCE010E94D6
:1014A000F209F1CFEB8DEC0FFD2FF11DE35AFF4F49
:1014B000F0829FB7F8940B8FEA89FB898081806264
:1014C000CFCFCF93DF93EC01888D8823B9F0AA8921
:1014D000BB89E889F9898C9185FD03C0808186FDEF
:1014E0000DC00FB607FCF7CF8C9185FFF2CF80813E
:1014F00085FFEDCFCE010E94F209E9CFDF91CF91B8
:101500000895833081F028F4813099F08230A9F079
:1015100008958730A9F08830C9F08430B1F4809103
:1015200080008F7D03C0809180008F778093800042
:10153000089584B58F7784BD089584B58F7DFBCFE2
:101540008091B0008F778093B00008958091B000B3
:101550008F7DF9CF1F93CF93DF93282F30E0F901D0
:10156000EC5CF54F8491F901E95AFD4ED491F901F3
:10157000EB58FD4EC491CC23A9F0162F81110E9487
:10158000810AEC2FF0E0EE0FFF1FE559FD4EA5910B
:10159000B4918FB7F894EC91111108C0D095DE2367
:1015A000DC938FBFDF91CF911F910895DE2BF8CF91
:1015B0009091000189130BC0E9E8F2E1E4919FEFFB
:1015C00090930001E13049F028F0E23061F060E0F2
:1015D0000C94AA0A10926E00FACF90916F009D7F32
:1015E00090936F00F4CF909170009D7F9093700066
:1015F00091E09093B0009091B100987F94609093A7
:10160000B1001092B300E3CFCF93DF9390E0FC01E1
:10161000E95AFD4E24918B589D4EFC0184918823FC
:10162000D1F090E0880F991FFC01E858FA4FA5917E
:10163000B491FC01E559FD4EC591D49161110EC0E4
:101640009FB7F8948C91E22FE0958E238C9328819C
:10165000E223E8839FBFDF91CF9108958FB7F8947D
:10166000EC91E22BEC938FBFF6CFCF92DF92EF920B
:10167000FF92CF936C0180910001883049F08F3F39
:1016800009F44FC0CF91FF90EF90DF90CF90089575
:10169000E9E8F2E1C491C7FDF5CF61E088E00E947E
:1016A000040BCC2319F0C23009F0D9C0F12CE12C85
:1016B00068E478EE81E090E0A70196010E946B2239
:1016C000BA01A9014150510961097109CC2309F4FA
:1016D00006C1C23009F094C04F3F51056105710544
:1016E00009F00CF4BAC064E274EF80E090E0A70166
:1016F00096010E946B22BA01A9014150510961096A
:10170000710995E08091B100887F892B8093B100A9
:10171000C13009F4BCC0C23009F4CEC0C111B2CF8F
:101720008AC088E080930001E9E8F2E1C491CF3FEC
:1017300009F4A8CFC13021F150F0C23009F43EC005
:10174000C7FDA0CF61E088E00E94040BACCF14BCC1
:1017500015BC84B5826084BD85B5816085BDEDE72B
:10176000F2E1E491F0E0EE0FFF1FE559FD4E8591A7
:101770009491EFE5F2E1E491E0932202C0E08DCF95
:101780001092800010928100809181008860809387
:10179000810080918100816080938100EDE7F2E11A
:1017A000E491F0E0EE0FFF1FE559FD4E8591949115
:1017B000EFE5F2E1E491E09321026FCF1092B000E7
:1017C0001092B1008091B00082608093B00080914F
:1017D000B10081608093B100EDE7F2E1E491F0E0C7
:1017E000EE0FFF1FE559FD4E8591949190932002D5
:1017F00080931F02EFE5F2E1E491E0931E024DCFEA
:101800004F3F51056105710541F13CF162E17AE715
:1018100080E090E0A70196010E946B22BA01A90125
:101820004150510961097109C11162C094E085B547
:10183000887F892B85BD47BD8FEF9FEFDC018093AB
:101840002B0290932C02A0932D02B0932E02809134
:101850006E00826080936E0015CF94E053CF9601A6
:1018600050E040E060E072E18AE790E00E946B2285
:10187000BA01A9014150510961097109C13009F04A
:1018800047CF80918100887F816080938100509351
:101890008900409388008FEF9FEFDC01809327023F
:1018A00090932802A0932902B0932A0280916F009E
:1018B000826080936F00E6CE4093B3008FEF9FEF7E
:1018C000DC018093230290932402A0932502B0931D
:1018D000260280917000826080937000D3CE93E0E6
:1018E0004F3F51056105710511F00CF08FCF9FCF6F
:1018F00096E008CF3FB7F89480910D0290910E02C8
:10190000A0910F02B091100226B5A89B05C02F3FF1
:1019100019F00196A11DB11D3FBFBA2FA92F982F15
:101920008827BC01CD01620F711D811D911D42E010
:10193000660F771F881F991F4A95D1F708958F92D8
:101940009F92AF92BF92CF92DF92EF92FF926B0184
:101950007C010E947A0C4B015C01C114D104E104AA
:10196000F104B9F00E947A0C681979098A099B0977
:10197000683E73408105910580F321E0C21AD108C9
:10198000E108F10888EE880E83E0981EA11CB11CC6
:10199000E4CFFF90EF90DF90CF90BF90AF909F90FB
:1019A0008F900895EF92FF920F931F93CF93DF9341
:1019B000EC01EC80FD806E157F050CF070C057FFC8
:1019C00004C0240F351F50E040E08E819F81FA0152
:1019D000E20FF31F8E179F071CF49C01241B350B8D
:1019E000121613060CF05BC0922F842F86958695F5
:1019F00086958E9DD0018F9DB00D11246A0F7B1F9F
:101A0000AF8DB8A1A60FB71F477049F188E0841BBE
:101A1000482F682F70E0FB01E059FA4FE491281736
:101A200008F063C0621B71092FEF30E002C03595EA
:101A300027956A95E2F7E2230130110539F0B0F1FC
:101A40000230110561F58C91E82702C08C91E82BDA
:101A5000EC93941720F12C813D81A20FB31FE92F45
:101A6000E41BE83078F00230110521F58E2F9C91AF
:101A700090959C932C813D81A20FB31F8850883094
:101A8000B0F7E770EE2359F0F0E0E859FA4FE4912F
:101A900001301105F9F010F10230110519F1DF9153
:101AA000CF911F910F91FF90EF900895E0958C9149
:101AB000E823CECF81E00115110509F480E081957E
:101AC0009E2F8C932C813D81A20FB31F985098308C
:101AD000C0F7D7CF8C91E82BEC93E1CFE0958C91B8
:101AE000E823FACF8C91E827F7CF0130110509F4EC
:101AF000ADCFE0F20230110509F4A5CFAE0DBF1D48
:101B0000AECF0F931F93CF93DF9377FF04C0260FC1
:101B1000371F70E060E0DC011496CD91DC91FB0191
:101B2000E20FF31FCE17DF071CF49E01261B370BB5
:101B3000121613064CF5FA0157FD3796A3E0F595FA
:101B4000E795AA95E1F7EC9FD001ED9FB00DFC9FC2
:101B5000B00D11246A0F7B1FDC015F96ED91FC91A3
:101B6000E60FF71F4770552781E090E001C0880F0E
:101B70004A95EAF7482F0130110559F0A8F02E0FC9
:101B80003F1F02301105E1F0DF91CF911F910F91BE
:101B900008952E0F3F1FE217F307B1F38191DF0184
:101BA0001197842B8C93F7CF80952E0F3F1FE21750
:101BB000F30751F39191DF01119798239C93F7CF8D
:101BC000E217F30709F38191DF01119784278C93C2
:101BD000F7CF0F931F93FA01DC0156964C9156975D
:101BE0004230E9F04330A1F1413061F514964D9156
:101BF0005C91DA01AE1BBF0BFD01E21BF30B77FD1D
:101C00000BC0DC0116964D915C916417750724F4A6
:101C1000AB01BF010E94810D1F910F910895149691
:101C20004D915C91DA01A61BB70BBD0161507109A2
:101C3000DC0116964D915C91DA01AE1BBF0BFD01E4
:101C4000E21BF30B77FDE8CFAF010E94D20CE4CF8B
:101C500016964D915C91DA01A61BB70BBD01615040
:101C60007109CDCF0F931F93FA01DC0156964C9169
:101C700056974230A9F0433091F1413019F514964E
:101C80004D915C91DA01AE1BBF0BFD013197F7FD61
:101C900004C0AB01BF010E94D20C1F910F910895A7
:101CA00014964D915C91DA01A61BB70BBD01DC01C6
:101CB00016964D915C91DA01AE1BBF0BFD01319779
:101CC000621B730BF7FDE9CFDC0116964D915C9119
:101CD000E417F50714F7AF010E94810DDECF1696C9
:101CE0004D915C91DA01A61BB70BBD01621B730B12
:101CF000CECFFC0177FD64C0808591856817790798
:101D00000CF05EC057FD5CC082859385481759076B
:101D10000CF056C086898230B1F0833029F18130D1
:101D200041F484819581841B950BAB01BC0161500A
:101D300071092130310509F108F443C02230310521
:101D400009F463C0089584819581DC01A61BB70B5B
:101D5000BD016150710986819781DC01A41BB50B1F
:101D6000AD0141505109E5CF86819781861B970BC4
:101D7000BA01AC0141505109DCCFCA0157FD0796A9
:101D8000A3E095958795AA95E1F7A481B5818A9FEF
:101D900090018B9F300D9A9F300D1124620F731F9D
:101DA000078CF0A1E02DE60FF71F4770552721E0C3
:101DB00030E001C0220F4A95EAF78081822B8083B0
:101DC0000895CA0157FD079633E0959587953A9592
:101DD000E1F7A481B5818A9F90018B9F300D9A9F76
:101DE000300D1124620F731F078CF0A1E02DE60F58
:101DF000F71F4770552781E090E001C0880F4A9592
:101E0000EAF7809590818923DACFCA0157FD0796BA
:101E100023E0959587952A95E1F7A481B5818A9F5E
:101E200090018B9F300D9A9F300D1124620F731F0C
:101E3000078CF0A1E02DE60FF71F4770552721E032
:101E400030E001C0220F4A95EAF780818227B7CFA0
:101E500008958EBD00000DB407FEFDCF8EB5089528
:101E60008CBD9DBD08950895FC016370668B8481CF
:101E7000958126813781613039F0633029F091876F
:101E800080873387228708953187208793878287C9
:101E900008952F923F924F925F926F927F928F920E
:101EA0009F92AF92BF92CF92DF92EF92FF920F93E9
:101EB0001F93CF93DF93CDB7DEB76A970FB6F89431
:101EC000DEBF0FBECDBF9A8F898F7A8369834A01A7
:101ED000D22E18870F833701BC2CDC0159962D9127
:101EE0003C915A972115310509F015C118968D912D
:101EF0009C911997681779070CF0D7C11A968D91A4
:101F00009C91481759070CF0D0C14C2C512CB6E0CD
:101F1000CB9E600D711D11247C876B8716161706EA
:101F20000CF0C3C1EA2DF0E0FA87E98793E0EE0FE9
:101F3000FF1F9A95E1F7F88BEF87CF01840F951F6C
:101F4000181619060CF0B1C1A98DBA8D58968C914E
:101F5000811104C0BFEABD1508F4D394A98DBA8DD0
:101F6000ED91FC9111970284F385E02DCD01099547
:101F7000B5E0DB9EC0011124E981FA81FC83EB838B
:101F8000312C212C9C0128593F4F388F2F8B4A2D03
:101F900050E05E8B4D8BEF89F88DE20DF31D44917F
:101FA0009E828D82D12CC12C69817A81620D731D34
:101FB0007A8B698B842F90E09C8B8B8BE98DFA8DCB
:101FC000A081B18140FF82C0F1E0BF126FC0AF12AB
:101FD0006DC01C96ED91FC912F813885A4014C0DAC
:101FE0005D1D69897A89898D9A8D0995EB89FC89AE
:101FF000F595E7954E2F5FEFC51AD50A6D817E8165
:102000008D899E89680F791F7E836D8398E0C9163C
:10201000D10481F6AFEF2A1A3A0AEB81FC81E40D74
:10202000F51DFC83EB83F5E02F16310409F0B3CFE7
:102030002F81388526153705B9F0A98DBA8DED9118
:10204000FC91B1E0BB1257C0AB1255C069817A81D7
:102050006B5F7F4F0088F189E02D830128E030E03D
:10206000A401898D9A8D0995A98DBA8DED91FC9168
:1020700011970688F789E02DCD016A960FB6F8947E
:10208000DEBF0FBECDBFDF91CF911F910F91FF90AB
:10209000EF90DF90CF90BF90AF909F908F907F9008
:1020A0006F905F904F903F902F9009941E96ED9106
:1020B000FC91EF80F88409851A8592014D815E813B
:1020C0006B817C81898D9A8D099590CF2F81388580
:1020D0002615370509F48ACF31E0B31207C0A312E1
:1020E00005C01C96ED91FC91930178CF1E96ED9161
:1020F000FC917301E0CF6B857C85641975090684BA
:10210000F785E02D73010F8518899201A401898D4F
:102110009A8D0995A9CFF9013496949132974591FA
:102120005491D91AB7E0DB9E400D511D1124F901DD
:10213000259134913C8B2B8BFA0125903490FA0138
:102140003296749031963491398B329664903196F0
:10215000449041E04C1518F04A1508F07FC0662DF8
:10216000062C000C770B7C836B83842D042C000CD5
:10217000990B9E838D83A98DBA8DED91FC9111975A
:102180000284F385E02DCD010995512CD12CC12C71
:10219000EA2DF0E0FA87E9872B2D30E03C872B878A
:1021A000A401440D511D47FC5A95588F4F8B6981EE
:1021B0007A81660D711D67FC7A957E876D877989B6
:1021C000C71608F051CF2C2D30E04D815E81420FB3
:1021D000531FA985BA854A9FC0014B9F900D5A9FF6
:1021E000900D1124FC01E80DF91DF88BEF87852D6A
:1021F000612C4F89588D420F531F5E8B4D8B671496
:1022000008F050C044244394480E877041F4C10143
:102210000196EB89FC89E20DF31DD4901C01D7FED9
:1022200019C0A98DBA8DED91FC91662D70E0B1E0D9
:10223000BB1219C0AB1217C02D853E85620F731FEC
:102240000484F585E02D2F8138854D895E89898D3F
:102250009A8D0995DD0C6394842DD1CF1E821D8249
:102260001C821B8288CF4B815C81640F751FAB85FC
:10227000BC856A9FC0016B9F900D7A9F900D1124C1
:1022800069817A81680F791F0684F785E02DEF80D8
:10229000F88409851A859D014F855889898D9A8D05
:1022A0000995D8CF570CC3948ACF6A960FB6F89485
:1022B000DEBF0FBECDBFDF91CF911F910F91FF9079
:1022C000EF90DF90CF90BF90AF909F908F907F90D6
:1022D0006F905F904F903F902F9008958F929F92B4
:1022E000AF92CF92EF92FF920F931F93CF93DF9312
:1022F000EC01262F898D9A8D009709F051C06A3024
:10230000D1F41D861C868D8948E0849F900111249C
:102310008E859F85820F931F9F878E8781E090E037
:10232000DF91CF911F910F91FF90EF90CF90AF90E1
:102330009F908F9008956D3089F3CC88AD888F89F8
:102340008823C1F08C859D8536E0C39E800D911D4C
:102350001124488559854817590764F44E855F85CF
:102360001D861C8638E0A39EC0011124840F951F92
:102370009F878E87EA88FB88088919894E855F8543
:102380006C857D85CE010E94490F2C898C859D85A9
:1023900046E0249F800D911D11249D878C87BECF20
:1023A0006A3069F41D861C86FC013896E4912D89FB
:1023B0008E859F85E29F800D911D1124ADCF6D30DC
:1023C00009F4ACCFFC0134963491631708F4A6CF1E
:1023D0003296E491E61708F4A1CFFC01329685907D
:1023E0009490462F431B342F47E0349F800C911C60
:1023F0001124F401329634913196E4913323A9F1FA
:10240000EE2399F1CC88F4013596E491AD884F899B
:10241000442301F10E2E000CFF0BE30FF11DCE9EA5
:10242000A001CF9E500D11246C857D85460F571F4E
:1024300068857985641775076CF44E855F851D8600
:102440001C86FC013896E491AE9E400D511D11246E
:102450005F874E87EA88FB88088919894E855F85E2
:102460006C857D85CE010E94490FF4013496E4917C
:102470002C898C859D85E29F800D911D11248DCF27
:102480006F927F928F929F92AF92BF92CF92DF9284
:10249000EF92FF920F931F93CF93DF93EC016B01A9
:1024A0005A0139014801E881F9810284F385E02D60
:1024B0000995E881F9810288F389E02D870193016C
:1024C000A501B601CE010995A501480D591D415040
:1024D0005109E881F9810288F389E02D9301B60161
:1024E000CE010995E881F9810088F189E02D9401F8
:1024F000A501B601CE010995C60CD71CB6016150E5
:102500007109E881F9810088F189E02D9401A50124
:10251000CE010995E881F9810688F789E02DCE0181
:10252000DF91CF911F910F91FF90EF90DF90CF90AF
:10253000BF90AF909F908F907F906F9009946F9213
:102540007F928F929F92AF92BF92CF92DF92EF9243
:10255000FF920F931F93CF93DF935C01EB016A010E
:10256000490138018701DC01ED91FC916217730785
:1025700019F5641675062CF0962D872D3A01C92E93
:10258000D82E9601261937092F5F3F4F048CF58D01
:10259000E02DA301BE01C5010995DF91CF911F91E7
:1025A0000F91FF90EF90DF90CF90BF90AF909F90F2
:1025B0008F907F906F9008954615570591F42617D8
:1025C000370724F0892D4B01C22FD82F9E012819DF
:1025D00039092F5F3F4F068CF78DE02DA601B4011E
:1025E000DACF0284F385E02D0995D501ED91FC91B8
:1025F0000488F589E02D83019401A601BE01C5017F
:102600000995D501ED91FC910688F789E02DC5016A
:10261000DF91CF911F910F91FF90EF90DF90CF90BE
:10262000BF90AF909F908F907F906F900994EF92A2
:10263000FF920F931F93DC011A960D911C911B972B
:1026400018962D913C911997ED91FC9100A0F1A164
:10265000E02D7B0150E040E070E060E009951F91C3
:102660000F91FF90EF9008954F925F926F927F923B
:102670008F929F92AF92BF92CF92DF92EF92FF9292
:102680000F931F93CF93DF936C012B015A013901F4
:102690004801DC01ED91FC910284F385E02D099560
:1026A000E201640C751CD601ED91FC91C615D705AD
:1026B0005CF40088F189E02D87019401A501BE0139
:1026C000C60109952196EFCF0688F789E02DC6014E
:1026D000DF91CF911F910F91FF90EF90DF90CF90FE
:1026E000BF90AF909F908F907F906F905F904F9032
:1026F00009948F929F92AF92BF92CF92DF92EF9206
:10270000FF920F931F93CF93DF93EC015B014A017C
:102710006901E881F9810284F385E02D099595012D
:102720002C0D3D1D21503109E881F9810488F5897E
:10273000E02D78018401A401B501CE010995E8815D
:10274000F9810688F789E02DCE01DF91CF911F91A5
:102750000F91FF90EF90DF90CF90BF90AF909F9040
:102760008F9009948F929F92AF92BF92CF92DF92F7
:10277000EF92FF920F931F93CF93DF93EC015B01D6
:102780004A0169017801E881F9810284F385E02D2D
:102790000995C80CD91C860101501109E881F981FD
:1027A0000488F589E02D9501A401B501CE010995B4
:1027B000E881F9810688F789E02DCE01DF91CF917C
:1027C0001F910F91FF90EF90DF90CF90BF90AF904F
:1027D0009F908F900994EF92FF920F931F93DC01CB
:1027E000ED91FC9100A0F1A1E02D09951F910F91B1
:1027F000FF90EF9008950F931F93DC01ED91FC91F2
:10280000068CF78DE02D09951F910F9108950F9378
:102810001F93DC01ED91FC91048CF58DE02D099561
:102820001F910F910895DC01ED91FC910084F185D9
:10283000E02D09943F924F925F926F927F928F9218
:102840009F92AF92BF92CF92DF92EF92FF920F933F
:102850001F93CF93DF9300D000D0CDB7DEB75C01DC
:102860003B016A014901280187E0480E511C93E0B1
:10287000559447949A95E1F7CA018E0D9F1D9A834E
:102880008983F12CE12C312C1C821B828B819C8151
:1028900087709927330C892B61F4EB81FC8183E0ED
:1028A000F595E7958A95E1F7EE0DFF1DE80DF91D09
:1028B000349037FE0AC021E030E0A6016B817C81B4
:1028C000660D771DC5010E9413148B819C810196B2
:1028D0009C838B8308171907C9F69FEFC91AD90A79
:1028E000E40CF51C89819A81C816D90669F60F9007
:1028F0000F900F900F90DF91CF911F910F91FF904C
:10290000EF90DF90CF90BF90AF909F908F907F908F
:102910006F905F904F903F9008952F923F924F920B
:102920005F926F927F928F929F92AF92BF92CF925F
:10293000DF92EF92FF920F931F93CF93DF9300D01C
:1029400000D000D0CDB7DEB73C016A013E832D83B5
:10295000FC82EB825801A41AB50AB7FE03C0B194F9
:10296000A194B1088D809E80861A970A97FE03C0B5
:102970009194819491088A149B045CF0902F812F8C
:102980000D811E819D838E839C2D8D2D6B01692F62
:10299000782F0C151D055CF09D818E817E836D83E3
:1029A000692F782F902F812F8601C92ED82E1601DE
:1029B000201A310A2B012D813E81421A530A57FEFB
:1029C00003C0519441945108710137FE03C03FEF99
:1029D000E31AF30AF594E7948D819E818617970791
:1029E0005CF5A1E0B0E0BA83A983C016D1064CF132
:1029F000D301ED91FC910484F585E02D2B813C8180
:102A0000A8016D817E818A149B041CF04D815E813A
:102A1000B801C3010995E418F508F7FE0AC02D8135
:102A20003E8189819A81280F391F3E832D83E20CD4
:102A3000F31C0F5F1F4FD9CF2FEF3FEF3A8329834E
:102A4000D4CF26960FB6F894DEBF0FBECDBFDF9170
:102A5000CF911F910F91FF90EF90DF90CF90BF909B
:102A6000AF909F908F907F906F905F904F903F902E
:102A70002F90089508952091BE01260F3327331F0C
:102A800021323105ECF42091E201FC0190E080E07C
:102A9000243069F082E00895A091BE012191AC013B
:102AA00042565E4FA40FB52FB11D2C930196861789
:102AB00098F38091BE01680F6093BE0180E0089595
:102AC00081E008951092E20181E08093E401109288
:102AD000E30161E082E10E94AA0A61E083E10E94D1
:102AE000AA0AE9EBF0E080818E7F808380818D7F70
:102AF000808388E48093B80085E48093BC000895C7
:102B0000CF93DF9391E090939D018823B9F0C0911A
:102B1000B800D091BA008091BC008A7B8093BC0041
:102B200060E082E10E94AA0A60E083E10E94AA0AB2
:102B30000E946215D093BA00C093B800DF91CF9184
:102B40000895E091170280911602E81730F4F0E042
:102B5000E858FE4F808190E008958FEF9FEF089531
:102B600090911702809116022FEF3FEF981748F4CB
:102B7000E92FF0E0E858FE4F208130E09F5F90930E
:102B80001702C90108958091160290911702891BBE
:102B9000990B0895CF92DF92EF92FF920F931F93BC
:102BA000CF93DF937C01CB018A0120911D02222368
:102BB00089F0EB016B01C40ED51ECC15DD0569F063
:102BC0006991D701ED91FC910190F081E02DC70151
:102BD0000995F3CF642F0E943B15C801DF91CF9177
:102BE0001F910F91FF90EF90DF90CF900895CF93BA
:102BF000DF931F92CDB7DEB7698320911D02222398
:102C0000F9F020911A02203258F021E030E0FC0166
:102C10003383228390E080E00F90DF91CF9108957D
:102C200080911B02E82FF0E0E85AFE4F99819083D3
:102C30008F5F80931B0280931A0281E090E0ECCFBB
:102C400061E0CE0101960E943B15F7CFCF92DF9253
:102C5000EF92FF920F931F93CF93DF93D0911A02BD
:102C600081E0D13208F09CC0C0911C020E947A0C15
:102C70006B017C018091E20181116CC082E0809344
:102C8000E20181E08093E4018FEF8093E1011092F3
:102C90000602D0930502A8E5B1E0E5EEF1E080E0A0
:102CA000D8138DC01092070280910702CC0FC82B59
:102CB000C09307028091E301813009F084C0109233
:102CC000E3010E947A0C6B017C01809107028093E2
:102CD000BB008091990190919A01A0919B01B091C4
:102CE0009C01892B8A2B8B2BA1F00E947A0C0091DE
:102CF000990110919A0120919B0130919C016C19CE
:102D00007D098E099F09061717072807390708F458
:102D100042C08091BC0083FDD8CF85EC8093BC007D
:102D20000E947A0C6B017C018091E201823009F4EF
:102D30004CC08091E1018F3F09F469C08091E101AD
:102D4000803209F466C08091E101803309F463C0E8
:102D500084E026C08091990190919A01A0919B01F5
:102D6000B0919C01892B8A2B8B2B09F483CF0E9475
:102D70007A0C0091990110919A0120919B01309158
:102D80009C016C197D098E099F09061717072807F2
:102D9000390708F06FCF809198010E94801585E077
:102DA00010921B0210921A0210921D02DF91CF9115
:102DB0001F910F91FF90EF90DF90CF9008959D911C
:102DC00091938F5F6DCF85EEA9CF809199019091FE
:102DD0009A01A0919B01B0919C01892B8A2B8B2B8E
:102DE00009F4A2CF0E947A0C0091990110919A01E6
:102DF00020919B0130919C016C197D098E099F09DE
:102E0000061717072807390708F08ECFC4CF80E0D0
:102E1000C7CF82E0C5CF83E0C3CFFF920F931F934C
:102E2000CF93DF93F82ED92FC62F8091F502909182
:102E3000F602009709F452C02091F90231E0309374
:102E40001D0220931C0210921B0210921A02DC0138
:102E5000ED91FC910190F081E02D60E009950F2D3E
:102E60001D2FD1E0FF24F394C1508091F502909181
:102E7000F602CF3F61F1D032C8F00E942616809151
:102E8000F5029091F6022091F902F0921D02209332
:102E90001C0210921B0210921A02DC01ED91FC91AF
:102EA0000190F081E02D60E00995D1E08091F5027C
:102EB0009091F602F8016491DC01ED91FC91019092
:102EC000F081E02D0995DF5F0F5F1F4FCDCFDF91C0
:102ED000CF911F910F91FF900C942616E09105035E
:102EE000F0910603908180910B0380958923808364
:102EF0000F2D1D2FC15008F438C0F8018491209186
:102F0000F3023091F402232B29F00E94290F0F5F66
:102F10001F4FF0CF28E030E040E8E0910103F0914E
:102F2000020390910903582F5423D9F05081952B17
:102F30009083E0910303F0910403908150910A0380
:102F4000952B9083E0910303F091040350819091BD
:102F50000A03909595239083469521503109E9F60F
:102F6000D6CF508190959523E3CFDF91CF911F91DC
:102F70000F91FF9008951F93CF93DF93EC018D8DF8
:102F80009E8D009721F1162F29A131E030931D026B
:102F900020931C0210921B0210921A02DC01ED9188
:102FA000FC910190F081E02D60E009958D8D9E8D62
:102FB000DC01ED91FC910190F081E02D612F0995EC
:102FC0008D8D9E8DDF91CF911F910C942616ADA50E
:102FD000BEA59C918BA9809589238C938B8D9C8D0C
:102FE000892B31F0862FDF91CF911F910C94290FFF
:102FF00028E030E080E8A9A5BAA599A9462F482382
:10300000C1F04C91942B9C93ABA5BCA59C914AA973
:10301000942B9C93ABA5BCA54C919AA99095942315
:103020009C9386952150310931F7DF91CF911F9103
:1030300008954C9190959423E6CFEF92FF920F93D1
:103040001F93CF93DF938091F5029091F602892B25
:1030500009F493C020910D0330910E0340910F03AA
:103060005091100360E074E284EF90E00E944922E6
:1030700020513109410951095695479537952795B2
:103080002093B80065E082E592E10E940D176091FF
:10309000DC02615088ED92E00E94BB172091DE02B5
:1030A0003091DF02C901079697FD079623E09595B9
:1030B00087952A95E1F72091DC023091DD02829F0D
:1030C0008001839F100D929F100D1124C091F70273
:1030D000D091F8028091F5029091F6020C0F1D1F1D
:1030E000009709F489C02091F90231E030931D0264
:1030F00020931C0210921B0210921A02DC01ED9127
:10310000FC910190F081E02D60E40995FF24F39497
:10311000EE24E3948091F5029091F6020C171D07BE
:1031200009F442C0BFE1BF15D0F40E942616809179
:10313000F5029091F6022091F902E0921D0220938F
:103140001C0210921B0210921A02DC01ED91FC91FC
:103150000190F081E02D60E40995FF24F3948091C3
:10316000F5029091F6026991DC01ED91FC910190DC
:10317000F081E02D0995F394CDCF8091F3029091E9
:10318000F402892B31F080911603909117030E946D
:10319000300FE0910703F0910803908180910C03B8
:1031A0008095892380836ECF0E9426168091F50238
:1031B0009091F602892B09F460C02091110330919F
:1031C0001203409113035091140360E074E284EF02
:1031D00090E00E9449222051310941095109569538
:1031E0004795379527952093B800DF91CF911F9190
:1031F0000F91FF90EF900895E0910503F091060381
:10320000808190910B03892B80830C171D0771F22D
:1032100089912091F3023091F402232B19F00E943E
:10322000290FF3CF28E030E040E8E0910103F0916E
:10323000020390910903582F5423D9F05081952B04
:103240009083E0910303F0910403908150910A036D
:10325000952B9083E0910303F091040350819091AA
:103260000A03909595239083469521503109E9F6FC
:10327000CCCF508190959523E3CFE0910703F09157
:103280000803808190910C03892B8083AECF1F931C
:10329000CF93DF93EC01162F8D8D9E8D892BB1F18D
:1032A0002DA93EA94FA958AD60E074E284EF90E0EB
:1032B0000E944922205131094109510956954795EB
:1032C000379527952093B80066EA111167EACE0179
:1032D0000E94BB178D8D9E8D892B41F129AD3AAD92
:1032E0004BAD5CAD60E074E284EF90E00E94492257
:1032F0002051310941095109569547953795279530
:103300002093B800DF91CF911F9108958B8D9C8DF4
:10331000892B21F08EAD9FAD0E94300FEFA5F8A94B
:1033200090818CA9809589238083CECFEFA5F8A9C1
:1033300080819CA9892B8083E5CF90E080E008956F
:103340002091DE023091DF02C901079697FD0796B2
:1033500023E0959587952A95E1F72091DC0230913D
:10336000DD02829FA001839F500D929F500D11247A
:1033700070E060E08091F7029091F8020C94BA231B
:103380000E94B52385ED8093BC00809199019091B6
:103390009A01A0919B01B0919C010796A11DB11DBE
:1033A00023E0B695A795979587952A95D1F7209113
:1033B000BC0024FD03C01092E201089540919901E0
:1033C00050919A0160919B0170919C01452B462B75
:1033D000472B69F30097A105B10541F025E32A9534
:1033E000F1F700000197A109B109E1CF809198019F
:1033F0000C9480151F920F920FB60F9211242F93E9
:103400003F934F935F936F937F938F939F93AF936C
:10341000BF93EF93FF938091230290912402A09198
:103420002502B0912602892B8A2B8B2BD1F190910A
:103430001E02E0911F02F091200280818927808383
:103440008091230290912402A0912502B09126023E
:10345000181619061A061B069CF4809123029091F7
:103460002402A0912502B09126020197A109B10979
:103470008093230290932402A0932502B093260206
:10348000FF91EF91BF91AF919F918F917F916F913C
:103490005F914F913F912F910F900FBE0F901F9012
:1034A0001895809100010E94D80AEACF1F920F92CE
:1034B0000FB60F9211242F933F934F935F936F9307
:1034C0007F938F939F93AF93BF93EF93FF938FE27D
:1034D00092E00E94F209FF91EF91BF91AF919F910D
:1034E0008F917F916F915F914F913F912F910F90AD
:1034F0000FBE0F901F9018951F920F920FB60F924C
:1035000011242F938F939F93EF93FF93E0913F02AA
:10351000F09140028081E0914502F091460282FDE7
:103520001BC09081809148028F5F8F732091490268
:10353000821741F0E0914802F0E0E15DFD4F958F88
:1035400080934802FF91EF919F918F912F910F905F
:103550000FBE0F901F9018958081F4CF1F920F928D
:103560000FB60F9211242F933F938F939F93AF9396
:10357000BF938091090290910A02A0910B02B09131
:103580000C023091080223E0230F2D3758F50196E5
:10359000A11DB11D209308028093090290930A0295
:1035A000A0930B02B0930C0280910D0290910E0239
:1035B000A0910F02B09110020196A11DB11D809340
:1035C0000D0290930E02A0930F02B0931002BF91D0
:1035D000AF919F918F913F912F910F900FBE0F90C0
:1035E0001F90189526E8230F0296A11DB11DD2CF7A
:1035F0001F920F920FB60F9211242F933F934F9368
:103600005F936F937F938F939F93AF93BF93EF934A
:10361000FF938091B900887F803609F44AC0F0F5A5
:10362000883209F4A7C018F5803109F49BC0B8F4BA
:10363000882309F4F9C0883009F494C0FF91EF9110
:10364000BF91AF919F918F917F916F915F914F91BA
:103650003F912F910F900FBE0F901F9018958831BA
:1036600009F488C0803251F78093E10114C080349E
:1036700009F49DC040F48033B9F38833F9F68093A0
:10368000E10185ECB0C0803509F485C0883509F4C6
:1036900096C0883499F60E94C219D0CF883909F4AF
:1036A0008CC038F5883729F050F4883611F080370F
:1036B00029F683E08093E2011092E00157C0883838
:1036C00009F47BC0803919F0803809F0B7CF8091B8
:1036D000E001803208F071C0E091E00181E08E0FDE
:1036E0008093E0018091BB00F0E0E054FE4F8083C6
:1036F0003DC0803B39F0E0F4803A09F479C0883A63
:1037000009F09CCF84E08093E2011092BF011092F7
:10371000BE01E0911402F091150209958091BE015D
:1037200081110FC081E08093BE0110929E0109C0FB
:10373000803C09F4A6CF883C09F4A3CF883B09F06C
:103740007DCFE091BF0181E08E0F8093BF01F0E05B
:10375000E256FE4F80818093BB009091BF01809123
:10376000BE0129C0809107028093BB0085EC809345
:10377000BC0064CF9091060280910502981758F51D
:10378000E091060281E08E0F80930602F0E0EB519B
:10379000FE4F8081E9CFE091060281E08E0F809399
:1037A00006028091BB00F0E0EB51FE4F80839091C8
:1037B0000602809105029817C8F285E8D8CFE091FB
:1037C000060281E08E0F809306028091BB00F0E03C
:1037D000EB51FE4F80838091E40181115CCF81E049
:1037E0008093E30184EA8093BC001092E20126CF2B
:1037F00085EC8093BC001092E2018091E001803260
:1038000030F4E091E001F0E0E054FE4F108260916E
:10381000E00170E0E0911202F091130280EC91E07F
:1038200009951092E0010ACF1092E10134CFCF92B6
:10383000DF92EF92FF920F931F93E82FF92F05C0AD
:10384000015011092109310961F1908196239417E2
:10385000B9F305C0015011092109310911F1908115
:1038600096239413F7CFC12CD12CE12CF12C0AC054
:103870008FEFC81AD80AE80AF80A0C151D052E059C
:103880003F0579F080818623841791F36C2D7D2D7F
:103890008E2D9F2D1F910F91FF90EF90DF90CF9075
:1038A000089560E070E080E090E01F910F91FF903C
:1038B000EF90DF90CF900895EFE2F2E01382128252
:1038C00048EE53E060E070E044835583668377837D
:1038D0008BE091E09183808385EC90E095878487ED
:1038E00084EC90E09787868780EC90E0918B808BCA
:1038F00081EC90E0938B828B82EC90E0958B848BB3
:1039000086EC90E0978B868B118E128E138E148E20
:10391000ACECB2E013961C921E92129714964D9343
:103920005D936D937C9317978DE191E011969C9335
:103930008E93E8EDF2E01382128220E830E03583C6
:10394000248380E290E09783868331872087938762
:103950008287168A158614861786168681E0858BDF
:10396000848B2FEF3FEF338B228B318B208B878B18
:10397000108E128E118E8FE291E091838083148ECF
:10398000138EB68FA58F10A2178E8FEF84A385A3F9
:1039900086A387A380A780E89AE1A6E0B0E085AB84
:1039A00096ABA7ABB0AF80EA96E8A1E0B0E081AFFC
:1039B00092AFA3AFB4AF80E586AF17AE0895789409
:1039C00084B5826084BD84B5816084BD85B5826024
:1039D00085BD85B5816085BD80916E0081608093D5
:1039E0006E0010928100809181008260809381003E
:1039F000809181008160809381008091800081604E
:103A0000809380008091B10084608093B1008091A8
:103A1000B00081608093B00080917A0084608093D0
:103A20007A0080917A00826080937A0080917A0097
:103A3000816080937A0080917A00806880937A0018
:103A40001092C10061E082E00E94040B60E087E018
:103A50000E94040B61E08CE00E94040B60E08BE0AC
:103A60000E94040BE0913F02F091400282E08083CB
:103A7000E0913B02F0913C021082E0913D02F09116
:103A80003E028FEC808310924702E0914302F09156
:103A9000440286E08083E0914102F09142028081FD
:103AA00080618083E0914102F091420280818860D0
:103AB0008083E0914102F09142028081806880839E
:103AC000E0914102F091420280818F7D808361E02C
:103AD00088E00E94040B8091F7029091F802892BF4
:103AE00039F10E94A0198091DE029091DF0260916D
:103AF000DC027091DD02813291050CF072C0AC01E4
:103B00004052510957FF02C04F5F5F4F559547958F
:103B10006357710977FF02C06F5F7F4F7595679597
:103B2000E0E2EE2EF12C03E710E024E935E071C06D
:103B30002091DE023091DF02C901079697FD0796BA
:103B4000D3E095958795DA95E1F72091DC023091E5
:103B5000DD02AC01429FC001439F900D529F900D2A
:103B600011240E9490229093F8028093F702892BEF
:103B700009F0B7CF0E94A0190E941D184BE3242E14
:103B80004AE0342E5EE5452E52E1552ECCE7D2E1D7
:103B900062E6A62E62E1B62E70E8872E72E1972EBD
:103BA000E0E0CE2EE0E0DE2E66246394712CF1017D
:103BB0008491F2011491FE010491011116C2109238
:103BC00019021092180261E082E00E94AA0AC11450
:103BD000D10469F30E94DE09882349F30E940000A2
:103BE000E6CFAC014054510957FF02C04F5F5F4F11
:103BF000559547956255710977FF02C06F5F7F4FFA
:103C000075956795B0E4EB2EF12C02E510E024E702
:103C100037E088ED92E00E941A148CE38093FA0258
:103C20008091F5029091F602892B09F4E8C0809109
:103C3000DE029091DF02809709F4DFC08DE380936C
:103C4000F902109217021092160210921B021092A3
:103C50001A020E94621582E799E090931502809300
:103C6000140283E799E090931302809312028091EB
:103C7000000387FD1EC061E00E94040B61E080919B
:103C800000030E94AA0A61E070E080E090E00E94D8
:103C90009F0C60E0809100030E94AA0A6AE070E035
:103CA00080E090E00E949F0C61E0809100030E9400
:103CB000AA0A8091F5029091F602892B09F45EC15F
:103CC00020910D0330910E0340910F03509110038A
:103CD00060E074E284EF90E00E94492220513109B3
:103CE0004109510956954795379527952093B80076
:103CF00064E080E995E00E940D176091DE0261505A
:103D000088ED92E00E94BB1764E08CE895E00E9489
:103D10000D178091FA0264E1813009F460E188EDC9
:103D200092E00E94BB1764E088E895E00E940D17BE
:103D30008FE8809315038091DC029091DD0280383A
:103D4000910509F034C18091DE029091DF02803448
:103D5000910509F03CC18091FA02813009F425C136
:103D60008FEC80931503C2E16AED88ED92E00E942A
:103D7000BB176C2F88ED92E00E94BB1761E888EDBD
:103D800092E00E94BB176091150388ED92E00E94BB
:103D9000BB1769ED88ED92E00E94BB178091FA0293
:103DA00061EF813009F462E288ED92E00E94BB1776
:103DB00066E082E895E00E940D178091F5029091EF
:103DC000F602892B09F407C12091110330911203E7
:103DD000409113035091140360E074E284EF90E08B
:103DE0000E944922205131094109510956954795B0
:103DF000379527952093B800BDCE8CE320CF61E0A6
:103E00008091FE020E94040B61E08091FF020E94FB
:103E1000040B8091FE02082E000C990BFC01EB585C
:103E2000FD4EE491F0E0EE0FFF1FE559FD4E2591A8
:103E300034913093060320930503FC01E95AFD4EAB
:103E4000E491E0930B038091FF02082E000C990B84
:103E5000FC01EB58FD4EE491F0E0EE0FFF1FE55939
:103E6000FD4EA591B491B0930803A0930703FC0104
:103E7000E95AFD4EE491E0930C038C91E82BEC930E
:103E80008091F3029091F402892B09F434C0CFB7EA
:103E9000F89480911102811127C0EFE7F2E184913B
:103EA000E1E6F2E19491E82FF0E0EE0FFF1FE85811
:103EB000FA4FA591B491EC91E92321F461E08AE0F5
:103EC0000E94AA0A61E08AE00E94040B8CB580611E
:103ED0008CBD8CB580648CBD61E08DE00E94040BCC
:103EE00061E08BE00E94040B809111028F5F809350
:103EF0001102CFBFBCCE61E08091FC020E94040B96
:103F000061E08091FD020E94040B8091FC02082E6A
:103F1000000C990BFC01EB58FD4EE491F0E0EE0F24
:103F2000FF1FE559FD4E25913491309302032093F4
:103F30000103FC01E95AFD4EE491E09309038091ED
:103F4000FD02082E000C990BFC01EB58FD4EE4918C
:103F5000F0E0EE0FFF1FE559FD4EA591B491B0932F
:103F60000403A0930303FC01E95AFD4EE491E0939E
:103F70000A038C91E095E823EC9379CE8091F302CB
:103F80009091F402892B31F08091160390911703E0
:103F90000E94300FE0910703F09108039081809117
:103FA0000C03809589238083A3CE8FE9DACE8036F7
:103FB000910569F48091DE029091DF02409739F417
:103FC0008091FA02813029F08FEA80931503C2E0D4
:103FD000CBCE80E1FACFE0910703F0910803808116
:103FE00090910C03892B8083C5CD81110E94810A99
:103FF000E02FF0E0EE0FFF1FE85BF54FA591B491C5
:104000008C91182309F4DBCD70921902609218028A
:1040100060E082E00E94AA0A8CE291E00E94350BE7
:1040200064E670E080E090E00E949F0C84EF91E0F5
:104030000E94350B64E670E080E090E00E949F0CE7
:104040008CE291E00E94350B64E670E080E090E045
:104050000E949F0C88E00E94D80A0E94A01990E25A
:10406000E92EF12C00E810E022E530E150E040E0DC
:1040700070E060E088ED92E00E941A140E941D1822
:1040800060ED77E080E090E00E949F0C0E94A01914
:1040900022E53EE050E040E070E060E088ED92E034
:1040A0000E941A140E941D1862E370E080E090E004
:1040B0000E949F0C0E94A0190E941D1868EC70E0DD
:1040C00080E090E00E949F0C60E08CE00E94AA0AD1
:1040D00060E070E0CB010E949F0C61E08CE00E94E8
:1040E000AA0A60E070E0CB010E949F0C60E08CE0C7
:1040F0000E94AA0AF5016491F4018491E82FF0E08E
:10410000EE0FFF1FE85BF54F8591949100E412E4F8
:104110002FE030E0462F0E94171C611571058105C4
:10412000910529F06F5F7F4F8F4F9F4F9F700E94C7
:10413000502126E933E44BE05DE30E94B42120E006
:1041400030E040E05FE30E94B4210E94182160311A
:1041500071050CF058C08CE291E00E94350B64E6CA
:1041600070E080E090E00E949F0C84EF91E00E945C
:10417000350B64E670E080E090E00E949F0C88E5DB
:1041800092E00E94350B64E670E080E090E00E94CF
:104190009F0C88E00E94D80A0E94A01980E2E82EB5
:1041A000F12C00E810E022E53CE050E040E070E057
:1041B00060E088ED92E00E941A140E941D1860EDE4
:1041C00077E080E090E00E949F0C0E94A01922E519
:1041D0003AE050E040E070E060E088ED92E00E945C
:1041E0001A140E941D1862E370E080E090E00E94C3
:1041F0009F0C0E94A0190E941D1868EC70E080E0DE
:1042000090E00E949F0C60E070E0CB010E949F0C48
:10421000DECC8FE291E09093D9028093D802809116
:10422000F7029091F802009711F00C942C23089556
:104230000E941F216894B1110C94AE2108950E9430
:10424000932188F09F5798F0B92F9927B751B0F074
:10425000E1F0660F771F881F991F1AF0BA95C9F70A
:1042600014C0B13091F00E94AD21B1E008950C94DA
:10427000AD21672F782F8827B85F39F0B93FCCF38D
:10428000869577956795B395D9F73EF49095809587
:10429000709561957F4F8F4F9F4F0895E89409C0A7
:1042A00097FB3EF490958095709561957F4F8F4F69
:1042B0009F4F9923A9F0F92F96E9BB279395F6957F
:1042C000879577956795B795F111F8CFFAF4BB0FFD
:1042D00011F460FF1BC06F5F7F4F8F4F9F4F16C061
:1042E000882311F096E911C0772321F09EE8872FEB
:1042F000762F05C0662371F096E8862F70E060E0A7
:104300002AF09A95660F771F881FDAF7880F96951F
:10431000879597F9089557FD9058440F551F59F008
:104320005F3F71F04795880F97FB991F61F09F3FA2
:1043300079F087950895121613061406551FF2CFCB
:104340004695F1DF08C0161617061806991FF1CF1B
:1043500086957105610508940895E894BB27662742
:104360007727CB0197F908950E94C7210C94382232
:104370000E942A2238F00E94312220F0952311F069
:104380000C9421220C94272211240C94AE210E941B
:104390008B2170F3959FC1F3950F50E0551F629FDD
:1043A000F001729FBB27F00DB11D639FAA27F00D8E
:1043B000B11DAA1F649F6627B00DA11D661F829FB5
:1043C0002227B00DA11D621F739FB00DA11D621F9A
:1043D000839FA00D611D221F749F3327A00D611DB7
:1043E000231F849F600D211D822F762F6A2F112499
:1043F0009F5750409AF0F1F088234AF0EE0FFF1FCC
:10440000BB1F661F771F881F91505040A9F79E3F22
:10441000510580F00C9421220C94AE215F3FE4F30F
:10442000983ED4F3869577956795B795F795E79578
:104430009F5FC1F7FE2B880F911D9695879597F981
:10444000089597F99F6780E870E060E008959FEF16
:1044500080EC089500240A9416161706180609061B
:10446000089500240A9412161306140605060895EA
:10447000092E0394000C11F4882352F0BB0F40F472
:10448000BF2B11F460FF04C06F5F7F4F8F4F9F4FB2
:104490000895A1E21A2EAA1BBB1BFD010DC0AA1F85
:1044A000BB1FEE1FFF1FA217B307E407F50720F09D
:1044B000A21BB30BE40BF50B661F771F881F991F18
:1044C0001A9469F760957095809590959B01AC0161
:1044D000BD01CF010895052E97FB1EF400940E94A4
:1044E000822257FD07D00E94492207FC03D04EF4D8
:1044F0000C94822250954095309521953F4F4F4F17
:104500005F4F089590958095709561957F4F8F4F7F
:104510009F4F0895EE0FFF1F0590F491E02D099431
:104520000F931F93CF93DF938230910510F482E0B5
:1045300090E0E0911A03F0911B0330E020E0B0E03E
:10454000A0E0309799F42115310509F44AC0281BE1
:10455000390B24303105D8F58A819B8161157105AD
:1045600089F1FB0193838283FE0111C04081518157
:104570000281138148175907E0F04817590799F449
:10458000109761F012960C93129713961C93329623
:10459000CF01DF91CF911F910F91089500931A03DE
:1045A00010931B03F4CF2115310551F04217530727
:1045B00038F0A901DB019A01BD01DF01F801C1CF8B
:1045C000EF01F9CF90931B0380931A03CDCFFE0127
:1045D000E20FF31F8193919322503109398328838D
:1045E000D7CF2091180330911903232B41F4209148
:1045F0000301309104013093190320931803209193
:104600000101309102012115310541F42DB73EB76A
:104610004091050150910601241B350BE0911803D0
:10462000F0911903E217F307A0F42E1B3F0B281794
:10463000390778F0AC014E5F5F4F2417350748F01B
:104640004E0F5F1F5093190340931803819391936A
:104650009FCFF0E0E0E09CCFCF93DF930097E9F0AD
:10466000FC01329713821282A0911A03B0911B03AE
:10467000ED0130E020E01097A1F420813181820F1C
:10468000931F20911803309119032817390709F057
:1046900061C0F0931903E0931803DF91CF9108955F
:1046A000EA01CE17DF07E8F54A815B819E014115DB
:1046B0005105B1F7E901FB83EA8349915991C40F90
:1046C000D51FEC17FD0761F4808191810296840F5C
:1046D000951FE90199838883828193819B838A83D3
:1046E000F0E0E0E012968D919C9113970097B9F558
:1046F0002D913C911197CD010296820F931F20912D
:104700001803309119032817390739F6309751F5F6
:1047100010921B0310921A03B0931903A09318036D
:10472000BCCFD383C28340815181840F951FC817AA
:10473000D90761F44E5F5F4F88819981480F591FF7
:10474000518340838A819B81938382832115310524
:1047500009F0B0CFF0931B03E0931A039ECFFD0145
:10476000DC01C0CF13821282D7CF81E090E0F894B1
:104770000C94C123DC0101C06D9341505040E0F71F
:10478000089519E0C6E4D9E004C0FE010E948A221F
:0C4790002196C734D107C9F7F894FFCF79
:10479C00FF00001C03800000000000140A7409A133
:1047AC0009610AD209B009C40900000000F715CA52
:1047BC00159D197109C315B015A115000000006EE7
:1047CC001174099D193A15790E71091314EB13071D
:1047DC0014FB138D147109340F4719E90D320E3483
:0847EC001317139F1240120085
:00000001FF
